Component: ARM Compiler 5.06 update 7 (build 960) Tool: armlink [4d3601]

==============================================================================

Section Cross References

    gd32f3x0_it.o(i.DMA_Channel1_2_IRQHandler) refers to gd32f3x0_dma.o(i.dma_interrupt_flag_get) for dma_interrupt_flag_get
    gd32f3x0_it.o(i.DMA_Channel1_2_IRQHandler) refers to uart0_dma.o(i.Uart0_dma_Tx_Over) for Uart0_dma_Tx_Over
    gd32f3x0_it.o(i.SysTick_Handler) refers to systick.o(i.delay_decrement) for delay_decrement
    gd32f3x0_it.o(i.USART0_IRQHandler) refers to gd32f3x0_usart.o(i.usart_interrupt_flag_get) for usart_interrupt_flag_get
    gd32f3x0_it.o(i.USART0_IRQHandler) refers to gd32f3x0_usart.o(i.usart_interrupt_flag_clear) for usart_interrupt_flag_clear
    gd32f3x0_it.o(i.USART0_IRQHandler) refers to uart0_dma.o(i.Uart0_DMA_Rx_Data) for Uart0_DMA_Rx_Data
    main.o(i.gd_led_config) refers to gd32f3x0_rcu.o(i.rcu_periph_clock_enable) for rcu_periph_clock_enable
    main.o(i.gd_led_config) refers to gd32f3x0_gpio.o(i.gpio_mode_set) for gpio_mode_set
    main.o(i.gd_led_config) refers to gd32f3x0_gpio.o(i.gpio_output_options_set) for gpio_output_options_set
    main.o(i.main) refers to main.o(i.gd_led_config) for gd_led_config
    main.o(i.main) refers to systick.o(i.systick_config) for systick_config
    main.o(i.main) refers to uart0_dma.o(i.uart0_dma_init) for uart0_dma_init
    main.o(i.main) refers to i2c.o(i.IIC_Init) for IIC_Init
    main.o(i.main) refers to systick.o(i.delay_ms) for delay_ms
    main.o(i.main) refers to main.o(i.gd_led_toggle) for gd_led_toggle
    main.o(i.main) refers to sht20.o(i.SHT20_GetValue) for SHT20_GetValue
    main.o(i.main) refers to uart0_dma.o(i.Uart0_Start_DMA_Tx) for Uart0_Start_DMA_Tx
    main.o(i.main) refers to uart0_dma.o(.data) for flag_uart0_rx
==============================================================================

Removing Unused input sections from the image.

    Removing gd32f3x0_it.o(.rev16_text), (4 bytes).
    Removing gd32f3x0_it.o(.revsh_text), (4 bytes).
    Removing main.o(.rev16_text), (4 bytes).
    Removing main.o(.revsh_text), (4 bytes).
    Removing systick.o(.rev16_text), (4 bytes).
    Removing systick.o(.revsh_text), (4 bytes).
    Removing systick.o(i.delay_1ms), (20 bytes).
    Removing gd32f310g_start.o(.rev16_text), (4 bytes).
    Removing gd32f310g_start.o(.revsh_text), (4 bytes).
    Removing gd32f310g_start.o(i.gd_eval_key_init), (128 bytes).
    Removing gd32f310g_start.o(i.gd_eval_key_state_get), (32 bytes).
    Removing gd32f310g_start.o(i.gd_eval_led_init), (84 bytes).
    Removing gd32f310g_start.o(i.gd_eval_led_off), (24 bytes).
    Removing gd32f310g_start.o(i.gd_eval_led_on), (24 bytes).
    Removing gd32f310g_start.o(i.gd_eval_led_toggle), (24 bytes).
    Removing gd32f310g_start.o(.constdata), (31 bytes).
    Removing uart0_dma.o(.rev16_text), (4 bytes).
    Removing uart0_dma.o(.revsh_text), (4 bytes).
==============================================================================

Image Symbol Table

    Local Symbols

    Symbol Name                              Value     Ov Type        Size  Object(Section)

    ../clib/angel/boardlib.s                 0x00000000   Number         0  boardshut.o ABSOLUTE
    ../clib/angel/boardlib.s                 0x00000000   Number         0  boardinit1.o ABSOLUTE
    ../clib/angel/boardlib.s                 0x00000000   Number         0  boardinit2.o ABSOLUTE
    ../clib/angel/boardlib.s                 0x00000000   Number         0  boardinit3.o ABSOLUTE
    ../clib/angel/handlers.s                 0x00000000   Number         0  __scatter_zi.o ABSOLUTE
    ../clib/angel/handlers.s                 0x00000000   Number         0  __scatter_copy.o ABSOLUTE
    ../clib/angel/kernel.s                   0x00000000   Number         0  rtexit2.o ABSOLUTE
    ../clib/angel/kernel.s                   0x00000000   Number         0  __rtentry.o ABSOLUTE
    ../clib/angel/kernel.s                   0x00000000   Number         0  __rtentry4.o ABSOLUTE
    ../clib/angel/kernel.s                   0x00000000   Number         0  __rtentry2.o ABSOLUTE
    ../clib/angel/kernel.s                   0x00000000   Number         0  rtexit.o ABSOLUTE
    ../clib/angel/rt.s                       0x00000000   Number         0  rt_raise.o ABSOLUTE
    ../clib/angel/scatter.s                  0x00000000   Number         0  __scatter.o ABSOLUTE
    ../clib/angel/startup.s                  0x00000000   Number         0  __main.o ABSOLUTE
    ../clib/angel/sys.s                      0x00000000   Number         0  indicate_semi.o ABSOLUTE
    ../clib/angel/sys.s                      0x00000000   Number         0  sys_stackheap_outer.o ABSOLUTE
    ../clib/angel/sys.s                      0x00000000   Number         0  libspace.o ABSOLUTE
    ../clib/angel/sys.s                      0x00000000   Number         0  use_no_semi.o ABSOLUTE
    ../clib/angel/sysapp.c                   0x00000000   Number         0  sys_exit.o ABSOLUTE
    ../clib/angel/sysapp.c                   0x00000000   Number         0  sys_wrch.o ABSOLUTE
    ../clib/angel/sysapp.c                   0x00000000   Number         0  sys_command.o ABSOLUTE
    ../clib/armsys.c                         0x00000000   Number         0  argv_veneer.o ABSOLUTE
    ../clib/armsys.c                         0x00000000   Number         0  argv_veneer.o ABSOLUTE
    ../clib/armsys.c                         0x00000000   Number         0  _get_argv_nomalloc.o ABSOLUTE
    ../clib/armsys.c                         0x00000000   Number         0  no_argv.o ABSOLUTE
    ../clib/heapalloc.c                      0x00000000   Number         0  hrguard.o ABSOLUTE
    ../clib/heapaux.c                        0x00000000   Number         0  heapauxi.o ABSOLUTE
    ../clib/libinit.s                        0x00000000   Number         0  libshutdown.o ABSOLUTE
    ../clib/libinit.s                        0x00000000   Number         0  libshutdown2.o ABSOLUTE
    ../clib/libinit.s                        0x00000000   Number         0  libinit.o ABSOLUTE
    ../clib/libinit.s                        0x00000000   Number         0  libinit2.o ABSOLUTE
    ../clib/signal.c                         0x00000000   Number         0  defsig_rtmem_formal.o ABSOLUTE
    ../clib/signal.c                         0x00000000   Number         0  defsig_rtmem_outer.o ABSOLUTE
    ../clib/signal.c                         0x00000000   Number         0  defsig_rtred_inner.o ABSOLUTE
    ../clib/signal.c                         0x00000000   Number         0  defsig_other.o ABSOLUTE
    ../clib/signal.c                         0x00000000   Number         0  defsig_segv_inner.o ABSOLUTE
    ../clib/signal.c                         0x00000000   Number         0  defsig_cppl_inner.o ABSOLUTE
    ../clib/signal.c                         0x00000000   Number         0  defsig_pvfn_inner.o ABSOLUTE
    ../clib/signal.c                         0x00000000   Number         0  defsig_stak_inner.o ABSOLUTE
    ../clib/signal.c                         0x00000000   Number         0  defsig_fpe_inner.o ABSOLUTE
    ../clib/signal.c                         0x00000000   Number         0  defsig_abrt_inner.o ABSOLUTE
    ../clib/signal.c                         0x00000000   Number         0  defsig_general.o ABSOLUTE
    ../clib/signal.c                         0x00000000   Number         0  __raise.o ABSOLUTE
    ../clib/signal.c                         0x00000000   Number         0  defsig_rtmem_inner.o ABSOLUTE
    ../clib/signal.c                         0x00000000   Number         0  defsig_exit.o ABSOLUTE
    ../clib/signal.s                         0x00000000   Number         0  defsig.o ABSOLUTE
    ../clib/stdlib.c                         0x00000000   Number         0  exit.o ABSOLUTE
    ../fplib/d2f.s                           0x00000000   Number         0  d2f.o ABSOLUTE
    ../fplib/daddsub.s                       0x00000000   Number         0  daddsub_clz.o ABSOLUTE
    ../fplib/dmul.s                          0x00000000   Number         0  dmul.o ABSOLUTE
    ../fplib/dnaninf.s                       0x00000000   Number         0  dnaninf.o ABSOLUTE
    ../fplib/dretinf.s                       0x00000000   Number         0  dretinf.o ABSOLUTE
    ../fplib/f2d.s                           0x00000000   Number         0  f2d.o ABSOLUTE
    ../fplib/fnaninf.s                       0x00000000   Number         0  fnaninf.o ABSOLUTE
    ../fplib/fpinit.s                        0x00000000   Number         0  fpinit.o ABSOLUTE
    ../fplib/fretinf.s                       0x00000000   Number         0  fretinf.o ABSOLUTE
    ../fplib/usenofp.s                       0x00000000   Number         0  usenofp.o ABSOLUTE
    ..\Applications\gd32f310g_start.c        0x00000000   Number         0  gd32f310g_start.o ABSOLUTE
    ..\Applications\gd32f3x0_it.c            0x00000000   Number         0  gd32f3x0_it.o ABSOLUTE
    ..\Applications\main.c                   0x00000000   Number         0  main.o ABSOLUTE
    ..\Applications\systick.c                0x00000000   Number         0  systick.o ABSOLUTE
    ..\BSP\i2c.c                             0x00000000   Number         0  i2c.o ABSOLUTE
    ..\BSP\uart0_dma.c                       0x00000000   Number         0  uart0_dma.o ABSOLUTE
    ..\CMSIS\GD\GD32F3x0\Source\ARM\startup_gd32f3x0.s 0x00000000   Number         0  startup_gd32f3x0.o ABSOLUTE
    ..\CMSIS\GD\GD32F3x0\Source\system_gd32f3x0.c 0x00000000   Number         0  system_gd32f3x0.o ABSOLUTE
    ..\Devices\sht20.c                       0x00000000   Number         0  sht20.o ABSOLUTE
    ..\Peripheral\Source\gd32f3x0_adc.c      0x00000000   Number         0  gd32f3x0_adc.o ABSOLUTE
    ..\Peripheral\Source\gd32f3x0_cec.c      0x00000000   Number         0  gd32f3x0_cec.o ABSOLUTE
    ..\Peripheral\Source\gd32f3x0_cmp.c      0x00000000   Number         0  gd32f3x0_cmp.o ABSOLUTE
    ..\Peripheral\Source\gd32f3x0_crc.c      0x00000000   Number         0  gd32f3x0_crc.o ABSOLUTE
    ..\Peripheral\Source\gd32f3x0_ctc.c      0x00000000   Number         0  gd32f3x0_ctc.o ABSOLUTE
    ..\Peripheral\Source\gd32f3x0_dac.c      0x00000000   Number         0  gd32f3x0_dac.o ABSOLUTE
    ..\Peripheral\Source\gd32f3x0_dbg.c      0x00000000   Number         0  gd32f3x0_dbg.o ABSOLUTE
    ..\Peripheral\Source\gd32f3x0_dma.c      0x00000000   Number         0  gd32f3x0_dma.o ABSOLUTE
    ..\Peripheral\Source\gd32f3x0_exti.c     0x00000000   Number         0  gd32f3x0_exti.o ABSOLUTE
    ..\Peripheral\Source\gd32f3x0_fmc.c      0x00000000   Number         0  gd32f3x0_fmc.o ABSOLUTE
    ..\Peripheral\Source\gd32f3x0_fwdgt.c    0x00000000   Number         0  gd32f3x0_fwdgt.o ABSOLUTE
    ..\Peripheral\Source\gd32f3x0_gpio.c     0x00000000   Number         0  gd32f3x0_gpio.o ABSOLUTE
    ..\Peripheral\Source\gd32f3x0_i2c.c      0x00000000   Number         0  gd32f3x0_i2c.o ABSOLUTE
    ..\Peripheral\Source\gd32f3x0_misc.c     0x00000000   Number         0  gd32f3x0_misc.o ABSOLUTE
    ..\Peripheral\Source\gd32f3x0_pmu.c      0x00000000   Number         0  gd32f3x0_pmu.o ABSOLUTE
    ..\Peripheral\Source\gd32f3x0_rcu.c      0x00000000   Number         0  gd32f3x0_rcu.o ABSOLUTE
    ..\Peripheral\Source\gd32f3x0_rtc.c      0x00000000   Number         0  gd32f3x0_rtc.o ABSOLUTE
    ..\Peripheral\Source\gd32f3x0_spi.c      0x00000000   Number         0  gd32f3x0_spi.o ABSOLUTE
    ..\Peripheral\Source\gd32f3x0_syscfg.c   0x00000000   Number         0  gd32f3x0_syscfg.o ABSOLUTE
    ..\Peripheral\Source\gd32f3x0_timer.c    0x00000000   Number         0  gd32f3x0_timer.o ABSOLUTE
    ..\Peripheral\Source\gd32f3x0_tsi.c      0x00000000   Number         0  gd32f3x0_tsi.o ABSOLUTE
    ..\Peripheral\Source\gd32f3x0_usart.c    0x00000000   Number         0  gd32f3x0_usart.o ABSOLUTE
    ..\Peripheral\Source\gd32f3x0_wwdgt.c    0x00000000   Number         0  gd32f3x0_wwdgt.o ABSOLUTE
    ..\\Applications\\gd32f310g_start.c      0x00000000   Number         0  gd32f310g_start.o ABSOLUTE
    ..\\Applications\\gd32f3x0_it.c          0x00000000   Number         0  gd32f3x0_it.o ABSOLUTE
    ..\\Applications\\main.c                 0x00000000   Number         0  main.o ABSOLUTE
    ..\\Applications\\systick.c              0x00000000   Number         0  systick.o ABSOLUTE
    ..\\BSP\\i2c.c                           0x00000000   Number         0  i2c.o ABSOLUTE
    ..\\BSP\\uart0_dma.c                     0x00000000   Number         0  uart0_dma.o ABSOLUTE
    ..\\CMSIS\\GD\\GD32F3x0\\Source\\system_gd32f3x0.c 0x00000000   Number         0  system_gd32f3x0.o ABSOLUTE
    ..\\Devices\\sht20.c                     0x00000000   Number         0  sht20.o ABSOLUTE
    ..\\Peripheral\\Source\\gd32f3x0_adc.c   0x00000000   Number         0  gd32f3x0_adc.o ABSOLUTE
    ..\\Peripheral\\Source\\gd32f3x0_cmp.c   0x00000000   Number         0  gd32f3x0_cmp.o ABSOLUTE
    ..\\Peripheral\\Source\\gd32f3x0_crc.c   0x00000000   Number         0  gd32f3x0_crc.o ABSOLUTE
    ..\\Peripheral\\Source\\gd32f3x0_ctc.c   0x00000000   Number         0  gd32f3x0_ctc.o ABSOLUTE
    ..\\Peripheral\\Source\\gd32f3x0_dbg.c   0x00000000   Number         0  gd32f3x0_dbg.o ABSOLUTE
    ..\\Peripheral\\Source\\gd32f3x0_dma.c   0x00000000   Number         0  gd32f3x0_dma.o ABSOLUTE
    ..\\Peripheral\\Source\\gd32f3x0_exti.c  0x00000000   Number         0  gd32f3x0_exti.o ABSOLUTE
    ..\\Peripheral\\Source\\gd32f3x0_fmc.c   0x00000000   Number         0  gd32f3x0_fmc.o ABSOLUTE
    ..\\Peripheral\\Source\\gd32f3x0_fwdgt.c 0x00000000   Number         0  gd32f3x0_fwdgt.o ABSOLUTE
    ..\\Peripheral\\Source\\gd32f3x0_gpio.c  0x00000000   Number         0  gd32f3x0_gpio.o ABSOLUTE
    ..\\Peripheral\\Source\\gd32f3x0_i2c.c   0x00000000   Number         0  gd32f3x0_i2c.o ABSOLUTE
    ..\\Peripheral\\Source\\gd32f3x0_misc.c  0x00000000   Number         0  gd32f3x0_misc.o ABSOLUTE
    ..\\Peripheral\\Source\\gd32f3x0_pmu.c   0x00000000   Number         0  gd32f3x0_pmu.o ABSOLUTE
    ..\\Peripheral\\Source\\gd32f3x0_rcu.c   0x00000000   Number         0  gd32f3x0_rcu.o ABSOLUTE
    ..\\Peripheral\\Source\\gd32f3x0_rtc.c   0x00000000   Number         0  gd32f3x0_rtc.o ABSOLUTE
    ..\\Peripheral\\Source\\gd32f3x0_spi.c   0x00000000   Number         0  gd32f3x0_spi.o ABSOLUTE
    ..\\Peripheral\\Source\\gd32f3x0_syscfg.c 0x00000000   Number         0  gd32f3x0_syscfg.o ABSOLUTE
    ..\\Peripheral\\Source\\gd32f3x0_timer.c 0x00000000   Number         0  gd32f3x0_timer.o ABSOLUTE
    ..\\Peripheral\\Source\\gd32f3x0_tsi.c   0x00000000   Number         0  gd32f3x0_tsi.o ABSOLUTE
    ..\\Peripheral\\Source\\gd32f3x0_usart.c 0x00000000   Number         0  gd32f3x0_usart.o ABSOLUTE
    ..\\Peripheral\\Source\\gd32f3x0_wwdgt.c 0x00000000   Number         0  gd32f3x0_wwdgt.o ABSOLUTE
    dc.s                                     0x00000000   Number         0  dc.o ABSOLUTE
    RESET                                    0x08000000   Section      336  startup_gd32f3x0.o(RESET)
    !!!main                                  0x08000150   Section        8  __main.o(!!!main)
    !!!scatter                               0x08000158   Section       52  __scatter.o(!!!scatter)
    !!handler_copy                           0x0800018c   Section       26  __scatter_copy.o(!!handler_copy)
    !!handler_zi                             0x080001a8   Section       28  __scatter_zi.o(!!handler_zi)
    .ARM.Collect$$libinit$$00000000          0x080001c4   Section        2  libinit.o(.ARM.Collect$$libinit$$00000000)
    .ARM.Collect$$libinit$$00000001          0x080001c6   Section        4  libinit2.o(.ARM.Collect$$libinit$$00000001)
    .ARM.Collect$$libinit$$00000004          0x080001ca   Section        0  libinit2.o(.ARM.Collect$$libinit$$00000004)
    .ARM.Collect$$libinit$$0000000A          0x080001ca   Section        0  libinit2.o(.ARM.Collect$$libinit$$0000000A)
    .ARM.Collect$$libinit$$0000000C          0x080001ca   Section        0  libinit2.o(.ARM.Collect$$libinit$$0000000C)
    .ARM.Collect$$libinit$$0000000E          0x080001ca   Section        0  libinit2.o(.ARM.Collect$$libinit$$0000000E)
    .ARM.Collect$$libinit$$00000011          0x080001ca   Section        0  libinit2.o(.ARM.Collect$$libinit$$00000011)
    .ARM.Collect$$libinit$$00000013          0x080001ca   Section        0  libinit2.o(.ARM.Collect$$libinit$$00000013)
    .ARM.Collect$$libinit$$00000015          0x080001ca   Section        0  libinit2.o(.ARM.Collect$$libinit$$00000015)
    .ARM.Collect$$libinit$$00000017          0x080001ca   Section        0  libinit2.o(.ARM.Collect$$libinit$$00000017)
    .ARM.Collect$$libinit$$00000019          0x080001ca   Section        0  libinit2.o(.ARM.Collect$$libinit$$00000019)
    .ARM.Collect$$libinit$$0000001B          0x080001ca   Section        0  libinit2.o(.ARM.Collect$$libinit$$0000001B)
    .ARM.Collect$$libinit$$0000001D          0x080001ca   Section        0  libinit2.o(.ARM.Collect$$libinit$$0000001D)
    .ARM.Collect$$libinit$$0000001F          0x080001ca   Section        0  libinit2.o(.ARM.Collect$$libinit$$0000001F)
    .ARM.Collect$$libinit$$00000021          0x080001ca   Section        0  libinit2.o(.ARM.Collect$$libinit$$00000021)
    .ARM.Collect$$libinit$$00000023          0x080001ca   Section        0  libinit2.o(.ARM.Collect$$libinit$$00000023)
    .ARM.Collect$$libinit$$00000025          0x080001ca   Section        0  libinit2.o(.ARM.Collect$$libinit$$00000025)
    .ARM.Collect$$libinit$$0000002C          0x080001ca   Section        0  libinit2.o(.ARM.Collect$$libinit$$0000002C)
    .ARM.Collect$$libinit$$0000002E          0x080001ca   Section        0  libinit2.o(.ARM.Collect$$libinit$$0000002E)
    .ARM.Collect$$libinit$$00000030          0x080001ca   Section        0  libinit2.o(.ARM.Collect$$libinit$$00000030)
    .ARM.Collect$$libinit$$00000032          0x080001ca   Section        0  libinit2.o(.ARM.Collect$$libinit$$00000032)
    .ARM.Collect$$libinit$$00000033          0x080001ca   Section        2  libinit2.o(.ARM.Collect$$libinit$$00000033)
    .ARM.Collect$$libshutdown$$00000000      0x080001cc   Section        2  libshutdown.o(.ARM.Collect$$libshutdown$$00000000)
    .ARM.Collect$$libshutdown$$00000002      0x080001ce   Section        0  libshutdown2.o(.ARM.Collect$$libshutdown$$00000002)
    .ARM.Collect$$libshutdown$$00000004      0x080001ce   Section        0  libshutdown2.o(.ARM.Collect$$libshutdown$$00000004)
    .ARM.Collect$$libshutdown$$00000006      0x080001ce   Section        0  libshutdown2.o(.ARM.Collect$$libshutdown$$00000006)
    .ARM.Collect$$libshutdown$$00000009      0x080001ce   Section        0  libshutdown2.o(.ARM.Collect$$libshutdown$$00000009)
    .ARM.Collect$$libshutdown$$0000000C      0x080001ce   Section        0  libshutdown2.o(.ARM.Collect$$libshutdown$$0000000C)
    .ARM.Collect$$libshutdown$$0000000E      0x080001ce   Section        0  libshutdown2.o(.ARM.Collect$$libshutdown$$0000000E)
    .ARM.Collect$$libshutdown$$00000011      0x080001ce   Section        0  libshutdown2.o(.ARM.Collect$$libshutdown$$00000011)
    .ARM.Collect$$libshutdown$$00000012      0x080001ce   Section        2  libshutdown2.o(.ARM.Collect$$libshutdown$$00000012)
    .ARM.Collect$$rtentry$$00000000          0x080001d0   Section        0  __rtentry.o(.ARM.Collect$$rtentry$$00000000)
    .ARM.Collect$$rtentry$$00000002          0x080001d0   Section        0  __rtentry2.o(.ARM.Collect$$rtentry$$00000002)
    .ARM.Collect$$rtentry$$00000004          0x080001d0   Section        6  __rtentry4.o(.ARM.Collect$$rtentry$$00000004)
    .ARM.Collect$$rtentry$$00000009          0x080001d6   Section        0  __rtentry2.o(.ARM.Collect$$rtentry$$00000009)
    .ARM.Collect$$rtentry$$0000000A          0x080001d6   Section        4  __rtentry2.o(.ARM.Collect$$rtentry$$0000000A)
    .ARM.Collect$$rtentry$$0000000C          0x080001da   Section        0  __rtentry2.o(.ARM.Collect$$rtentry$$0000000C)
    .ARM.Collect$$rtentry$$0000000D          0x080001da   Section        8  __rtentry2.o(.ARM.Collect$$rtentry$$0000000D)
    .ARM.Collect$$rtexit$$00000000           0x080001e2   Section        2  rtexit.o(.ARM.Collect$$rtexit$$00000000)
    .ARM.Collect$$rtexit$$00000002           0x080001e4   Section        0  rtexit2.o(.ARM.Collect$$rtexit$$00000002)
    .ARM.Collect$$rtexit$$00000003           0x080001e4   Section        4  rtexit2.o(.ARM.Collect$$rtexit$$00000003)
    .ARM.Collect$$rtexit$$00000004           0x080001e8   Section        6  rtexit2.o(.ARM.Collect$$rtexit$$00000004)
    .text                                    0x080001f0   Section       64  startup_gd32f3x0.o(.text)
    $v0                                      0x080001f0   Number         0  startup_gd32f3x0.o(.text)
    .text                                    0x08000230   Section        0  heapauxi.o(.text)
    .text                                    0x08000236   Section       74  sys_stackheap_outer.o(.text)
    .text                                    0x08000280   Section        0  exit.o(.text)
    .text                                    0x08000294   Section        8  libspace.o(.text)
    .text                                    0x0800029c   Section        0  sys_exit.o(.text)
    .text                                    0x080002a8   Section        2  use_no_semi.o(.text)
    .text                                    0x080002aa   Section        0  indicate_semi.o(.text)
    i.BusFault_Handler                       0x080002aa   Section        0  gd32f3x0_it.o(i.BusFault_Handler)
    i.DMA_Channel1_2_IRQHandler              0x080002ae   Section        0  gd32f3x0_it.o(i.DMA_Channel1_2_IRQHandler)
    i.DMA_Uart0_Init                         0x080002c0   Section        0  uart0_dma.o(i.DMA_Uart0_Init)
    i.DebugMon_Handler                       0x08000380   Section        0  gd32f3x0_it.o(i.DebugMon_Handler)
    i.HardFault_Handler                      0x08000382   Section        0  gd32f3x0_it.o(i.HardFault_Handler)
    i.I2C_ReadByte                           0x08000386   Section        0  i2c.o(i.I2C_ReadByte)
    i.I2C_WriteByte                          0x080003f0   Section        0  i2c.o(i.I2C_WriteByte)
    i.IIC_Ack                                0x0800044c   Section        0  i2c.o(i.IIC_Ack)
    i.IIC_Init                               0x08000488   Section        0  i2c.o(i.IIC_Init)
    i.IIC_NAck                               0x080004c8   Section        0  i2c.o(i.IIC_NAck)
    i.IIC_RecvByte                           0x08000504   Section        0  i2c.o(i.IIC_RecvByte)
    i.IIC_SendByte                           0x0800055c   Section        0  i2c.o(i.IIC_SendByte)
    i.IIC_SpeedCtl                           0x080005bc   Section        0  i2c.o(i.IIC_SpeedCtl)
    i.IIC_Start                              0x080005c8   Section        0  i2c.o(i.IIC_Start)
    i.IIC_Stop                               0x08000604   Section        0  i2c.o(i.IIC_Stop)
    i.IIC_WaitAck                            0x08000640   Section        0  i2c.o(i.IIC_WaitAck)
    i.MemManage_Handler                      0x0800069c   Section        0  gd32f3x0_it.o(i.MemManage_Handler)
    i.NMI_Handler                            0x080006a0   Section        0  gd32f3x0_it.o(i.NMI_Handler)
    i.NVIC_SetPriority                       0x080006a4   Section        0  systick.o(i.NVIC_SetPriority)
    NVIC_SetPriority                         0x080006a5   Thumb Code    32  systick.o(i.NVIC_SetPriority)
    i.PendSV_Handler                         0x080006cc   Section        0  gd32f3x0_it.o(i.PendSV_Handler)
    i.SHT20_GetValue                         0x080006d0   Section        0  sht20.o(i.SHT20_GetValue)
    i.SHT20_read_user_reg                    0x08000744   Section        0  sht20.o(i.SHT20_read_user_reg)
    i.SHT20_reset                            0x0800075a   Section        0  sht20.o(i.SHT20_reset)
    i.SHT2x_CalcRH                           0x08000768   Section        0  sht20.o(i.SHT2x_CalcRH)
    i.SHT2x_CalcTemperatureC                 0x080007d8   Section        0  sht20.o(i.SHT2x_CalcTemperatureC)
    i.SHT2x_CheckCrc                         0x08000848   Section        0  sht20.o(i.SHT2x_CheckCrc)
    i.SHT2x_MeasureHM                        0x08000894   Section        0  sht20.o(i.SHT2x_MeasureHM)
    i.SVC_Handler                            0x08000988   Section        0  gd32f3x0_it.o(i.SVC_Handler)
    i.SysTick_Handler                        0x0800098a   Section        0  gd32f3x0_it.o(i.SysTick_Handler)
    i.SystemInit                             0x08000994   Section        0  system_gd32f3x0.o(i.SystemInit)
    i.USART0_IRQHandler                      0x08000b64   Section        0  gd32f3x0_it.o(i.USART0_IRQHandler)
    i.Uart0_DMA_Rx_Data                      0x08000b88   Section        0  uart0_dma.o(i.Uart0_DMA_Rx_Data)
    i.Uart0_Start_DMA_Tx                     0x08000bc8   Section        0  uart0_dma.o(i.Uart0_Start_DMA_Tx)
    i.Uart0_dma_Tx_Over                      0x08000be8   Section        0  uart0_dma.o(i.Uart0_dma_Tx_Over)
    i.UsageFault_Handler                     0x08000c04   Section        0  gd32f3x0_it.o(i.UsageFault_Handler)
    i.delay_decrement                        0x08000c08   Section        0  systick.o(i.delay_decrement)
    i.delay_ms                               0x08000c20   Section        0  systick.o(i.delay_ms)
    i.delay_us                               0x08000c38   Section        0  systick.o(i.delay_us)
    i.dma_channel_disable                    0x08000c8c   Section        0  gd32f3x0_dma.o(i.dma_channel_disable)
    i.dma_channel_enable                     0x08000cb0   Section        0  gd32f3x0_dma.o(i.dma_channel_enable)
    i.dma_circulation_disable                0x08000cd4   Section        0  gd32f3x0_dma.o(i.dma_circulation_disable)
    i.dma_deinit                             0x08000cf8   Section        0  gd32f3x0_dma.o(i.dma_deinit)
    i.dma_flag_clear                         0x08000d54   Section        0  gd32f3x0_dma.o(i.dma_flag_clear)
    i.dma_init                               0x08000d6c   Section        0  gd32f3x0_dma.o(i.dma_init)
    i.dma_interrupt_enable                   0x08000e88   Section        0  gd32f3x0_dma.o(i.dma_interrupt_enable)
    i.dma_interrupt_flag_get                 0x08000eac   Section        0  gd32f3x0_dma.o(i.dma_interrupt_flag_get)
    i.dma_memory_to_memory_disable           0x08000f38   Section        0  gd32f3x0_dma.o(i.dma_memory_to_memory_disable)
    i.dma_struct_para_init                   0x08000f5c   Section        0  gd32f3x0_dma.o(i.dma_struct_para_init)
    i.dma_transfer_number_get                0x08000f74   Section        0  gd32f3x0_dma.o(i.dma_transfer_number_get)
    i.gd_led_config                          0x08000f88   Section        0  main.o(i.gd_led_config)
    i.gd_led_toggle                          0x08000fb8   Section        0  main.o(i.gd_led_toggle)
    i.gpio_af_set                            0x08000fc2   Section        0  gd32f3x0_gpio.o(i.gpio_af_set)
    i.gpio_bit_reset                         0x08001020   Section        0  gd32f3x0_gpio.o(i.gpio_bit_reset)
    i.gpio_bit_set                           0x08001024   Section        0  gd32f3x0_gpio.o(i.gpio_bit_set)
    i.gpio_input_bit_get                     0x08001028   Section        0  gd32f3x0_gpio.o(i.gpio_input_bit_get)
    i.gpio_mode_set                          0x08001038   Section        0  gd32f3x0_gpio.o(i.gpio_mode_set)
    i.gpio_output_options_set                0x08001086   Section        0  gd32f3x0_gpio.o(i.gpio_output_options_set)
    i.main                                   0x08001104   Section        0  main.o(i.main)
    i.nvic_irq_enable                        0x0800116c   Section        0  gd32f3x0_misc.o(i.nvic_irq_enable)
    i.nvic_priority_group_set                0x08001218   Section        0  gd32f3x0_misc.o(i.nvic_priority_group_set)
    i.nvic_vector_table_set                  0x0800122c   Section        0  gd32f3x0_misc.o(i.nvic_vector_table_set)
    i.rcu_clock_freq_get                     0x08001244   Section        0  gd32f3x0_rcu.o(i.rcu_clock_freq_get)
    i.rcu_periph_clock_enable                0x080014e0   Section        0  gd32f3x0_rcu.o(i.rcu_periph_clock_enable)
    i.rcu_periph_reset_disable               0x08001500   Section        0  gd32f3x0_rcu.o(i.rcu_periph_reset_disable)
    i.rcu_periph_reset_enable                0x08001520   Section        0  gd32f3x0_rcu.o(i.rcu_periph_reset_enable)
    i.system_clock_72m_hxtal                 0x08001540   Section        0  system_gd32f3x0.o(i.system_clock_72m_hxtal)
    system_clock_72m_hxtal                   0x08001541   Thumb Code   186  system_gd32f3x0.o(i.system_clock_72m_hxtal)
    i.system_clock_config                    0x08001608   Section        0  system_gd32f3x0.o(i.system_clock_config)
    system_clock_config                      0x08001609   Thumb Code     8  system_gd32f3x0.o(i.system_clock_config)
    i.systick_config                         0x08001610   Section        0  systick.o(i.systick_config)
    i.uart0_dma_init                         0x08001660   Section        0  uart0_dma.o(i.uart0_dma_init)
    i.usart_baudrate_set                     0x0800172c   Section        0  gd32f3x0_usart.o(i.usart_baudrate_set)
    i.usart_deinit                           0x080017a8   Section        0  gd32f3x0_usart.o(i.usart_deinit)
    i.usart_dma_receive_config               0x080017e8   Section        0  gd32f3x0_usart.o(i.usart_dma_receive_config)
    i.usart_dma_transmit_config              0x080017f8   Section        0  gd32f3x0_usart.o(i.usart_dma_transmit_config)
    i.usart_enable                           0x08001808   Section        0  gd32f3x0_usart.o(i.usart_enable)
    i.usart_interrupt_enable                 0x08001812   Section        0  gd32f3x0_usart.o(i.usart_interrupt_enable)
    i.usart_interrupt_flag_clear             0x0800182c   Section        0  gd32f3x0_usart.o(i.usart_interrupt_flag_clear)
    i.usart_interrupt_flag_get               0x08001858   Section        0  gd32f3x0_usart.o(i.usart_interrupt_flag_get)
    i.usart_receive_config                   0x08001890   Section        0  gd32f3x0_usart.o(i.usart_receive_config)
    i.usart_transmit_config                  0x080018a0   Section        0  gd32f3x0_usart.o(i.usart_transmit_config)
    x$fpl$d2f                                0x080018b0   Section       98  d2f.o(x$fpl$d2f)
    $v0                                      0x080018b0   Number         0  d2f.o(x$fpl$d2f)
    x$fpl$dadd                               0x08001914   Section      336  daddsub_clz.o(x$fpl$dadd)
    $v0                                      0x08001914   Number         0  daddsub_clz.o(x$fpl$dadd)
    _dadd1                                   0x08001925   Thumb Code     0  daddsub_clz.o(x$fpl$dadd)
    x$fpl$dmul                               0x08001a64   Section      340  dmul.o(x$fpl$dmul)
    $v0                                      0x08001a64   Number         0  dmul.o(x$fpl$dmul)
    x$fpl$dnaninf                            0x08001bb8   Section      156  dnaninf.o(x$fpl$dnaninf)
    $v0                                      0x08001bb8   Number         0  dnaninf.o(x$fpl$dnaninf)
    x$fpl$dretinf                            0x08001c54   Section       12  dretinf.o(x$fpl$dretinf)
    $v0                                      0x08001c54   Number         0  dretinf.o(x$fpl$dretinf)
    x$fpl$dsub                               0x08001c60   Section      468  daddsub_clz.o(x$fpl$dsub)
    $v0                                      0x08001c60   Number         0  daddsub_clz.o(x$fpl$dsub)
    _dsub1                                   0x08001c71   Thumb Code     0  daddsub_clz.o(x$fpl$dsub)
    x$fpl$f2d                                0x08001e34   Section       86  f2d.o(x$fpl$f2d)
    $v0                                      0x08001e34   Number         0  f2d.o(x$fpl$f2d)
    x$fpl$fnaninf                            0x08001e8a   Section      140  fnaninf.o(x$fpl$fnaninf)
    $v0                                      0x08001e8a   Number         0  fnaninf.o(x$fpl$fnaninf)
    x$fpl$fpinit                             0x08001f16   Section       10  fpinit.o(x$fpl$fpinit)
    $v0                                      0x08001f16   Number         0  fpinit.o(x$fpl$fpinit)
    x$fpl$fretinf                            0x08001f20   Section       10  fretinf.o(x$fpl$fretinf)
    $v0                                      0x08001f20   Number         0  fretinf.o(x$fpl$fretinf)
    x$fpl$usenofp                            0x08001f2a   Section        0  usenofp.o(x$fpl$usenofp)
    .data                                    0x20000000   Section        4  systick.o(.data)
    delay                                    0x20000000   Data           4  systick.o(.data)
    .data                                    0x20000004   Section        3  uart0_dma.o(.data)
    .data                                    0x20000008   Section        2  i2c.o(.data)
    .data                                    0x2000000c   Section        8  sht20.o(.data)
    .data                                    0x20000014   Section        4  system_gd32f3x0.o(.data)
    .bss                                     0x20000018   Section      200  uart0_dma.o(.bss)
    .bss                                     0x200000e0   Section       96  libspace.o(.bss)
    HEAP                                     0x20000140   Section     1024  startup_gd32f3x0.o(HEAP)
    Heap_Mem                                 0x20000140   Data        1024  startup_gd32f3x0.o(HEAP)
    STACK                                    0x20000540   Section     1024  startup_gd32f3x0.o(STACK)
    Stack_Mem                                0x20000540   Data        1024  startup_gd32f3x0.o(STACK)
    __initial_sp                             0x20000940   Data           0  startup_gd32f3x0.o(STACK)

    Global Symbols

    Symbol Name                              Value     Ov Type        Size  Object(Section)

    BuildAttributes$$THM_ISAv4$E$P$D$K$B$S$7EM$VFPi3$EXTD16$VFPS$VFMA$PE$A:L22UL41UL21$X:L11$S22US41US21$IEEE1$IW$USESV6$~STKCKD$USESV7$~SHL$OSPACE$ROPI$EBA8$UX$STANDARDLIB$REQ8$PRES8$EABIv2 0x00000000   Number         0  anon$$obj.o ABSOLUTE
    __ARM_use_no_argv                        0x00000000   Number         0  main.o ABSOLUTE
    __ARM_exceptions_init                     - Undefined Weak Reference
    __alloca_initialize                       - Undefined Weak Reference
    __arm_fini_                               - Undefined Weak Reference
    __arm_preinit_                            - Undefined Weak Reference
    __cpp_initialize__aeabi_                  - Undefined Weak Reference
    __cxa_finalize                            - Undefined Weak Reference
    __rt_locale                               - Undefined Weak Reference
    __sigvec_lookup                           - Undefined Weak Reference
    _atexit_init                              - Undefined Weak Reference
    _call_atexit_fns                          - Undefined Weak Reference
    _clock_init                               - Undefined Weak Reference
    _fp_trap_init                             - Undefined Weak Reference
    _fp_trap_shutdown                         - Undefined Weak Reference
    _get_lc_collate                           - Undefined Weak Reference
    _get_lc_ctype                             - Undefined Weak Reference
    _get_lc_monetary                          - Undefined Weak Reference
    _get_lc_numeric                           - Undefined Weak Reference
    _get_lc_time                              - Undefined Weak Reference
    _getenv_init                              - Undefined Weak Reference
    _handle_redirection                       - Undefined Weak Reference
    _init_alloc                               - Undefined Weak Reference
    _init_user_alloc                          - Undefined Weak Reference
    _initio                                   - Undefined Weak Reference
    _rand_init                                - Undefined Weak Reference
    _signal_finish                            - Undefined Weak Reference
    _signal_init                              - Undefined Weak Reference
    _terminate_alloc                          - Undefined Weak Reference
    _terminate_user_alloc                     - Undefined Weak Reference
    _terminateio                              - Undefined Weak Reference
    __Vectors_Size                           0x00000150   Number         0  startup_gd32f3x0.o ABSOLUTE
    __Vectors                                0x08000000   Data           4  startup_gd32f3x0.o(RESET)
    __Vectors_End                            0x08000150   Data           0  startup_gd32f3x0.o(RESET)
    __main                                   0x08000151   Thumb Code     8  __main.o(!!!main)
    __scatterload                            0x08000159   Thumb Code     0  __scatter.o(!!!scatter)
    __scatterload_rt2                        0x08000159   Thumb Code    44  __scatter.o(!!!scatter)
    __scatterload_rt2_thumb_only             0x08000159   Thumb Code     0  __scatter.o(!!!scatter)
    __scatterload_null                       0x08000167   Thumb Code     0  __scatter.o(!!!scatter)
    __scatterload_copy                       0x0800018d   Thumb Code    26  __scatter_copy.o(!!handler_copy)
    __scatterload_zeroinit                   0x080001a9   Thumb Code    28  __scatter_zi.o(!!handler_zi)
    __rt_lib_init                            0x080001c5   Thumb Code     0  libinit.o(.ARM.Collect$$libinit$$00000000)
    __rt_lib_init_fp_1                       0x080001c7   Thumb Code     0  libinit2.o(.ARM.Collect$$libinit$$00000001)
    __rt_lib_init_alloca_1                   0x080001cb   Thumb Code     0  libinit2.o(.ARM.Collect$$libinit$$0000002E)
    __rt_lib_init_argv_1                     0x080001cb   Thumb Code     0  libinit2.o(.ARM.Collect$$libinit$$0000002C)
    __rt_lib_init_atexit_1                   0x080001cb   Thumb Code     0  libinit2.o(.ARM.Collect$$libinit$$0000001B)
    __rt_lib_init_clock_1                    0x080001cb   Thumb Code     0  libinit2.o(.ARM.Collect$$libinit$$00000021)
    __rt_lib_init_cpp_1                      0x080001cb   Thumb Code     0  libinit2.o(.ARM.Collect$$libinit$$00000032)
    __rt_lib_init_exceptions_1               0x080001cb   Thumb Code     0  libinit2.o(.ARM.Collect$$libinit$$00000030)
    __rt_lib_init_fp_trap_1                  0x080001cb   Thumb Code     0  libinit2.o(.ARM.Collect$$libinit$$0000001F)
    __rt_lib_init_getenv_1                   0x080001cb   Thumb Code     0  libinit2.o(.ARM.Collect$$libinit$$00000023)
    __rt_lib_init_heap_1                     0x080001cb   Thumb Code     0  libinit2.o(.ARM.Collect$$libinit$$0000000A)
    __rt_lib_init_lc_collate_1               0x080001cb   Thumb Code     0  libinit2.o(.ARM.Collect$$libinit$$00000011)
    __rt_lib_init_lc_ctype_1                 0x080001cb   Thumb Code     0  libinit2.o(.ARM.Collect$$libinit$$00000013)
    __rt_lib_init_lc_monetary_1              0x080001cb   Thumb Code     0  libinit2.o(.ARM.Collect$$libinit$$00000015)
    __rt_lib_init_lc_numeric_1               0x080001cb   Thumb Code     0  libinit2.o(.ARM.Collect$$libinit$$00000017)
    __rt_lib_init_lc_time_1                  0x080001cb   Thumb Code     0  libinit2.o(.ARM.Collect$$libinit$$00000019)
    __rt_lib_init_preinit_1                  0x080001cb   Thumb Code     0  libinit2.o(.ARM.Collect$$libinit$$00000004)
    __rt_lib_init_rand_1                     0x080001cb   Thumb Code     0  libinit2.o(.ARM.Collect$$libinit$$0000000E)
    __rt_lib_init_return                     0x080001cb   Thumb Code     0  libinit2.o(.ARM.Collect$$libinit$$00000033)
    __rt_lib_init_signal_1                   0x080001cb   Thumb Code     0  libinit2.o(.ARM.Collect$$libinit$$0000001D)
    __rt_lib_init_stdio_1                    0x080001cb   Thumb Code     0  libinit2.o(.ARM.Collect$$libinit$$00000025)
    __rt_lib_init_user_alloc_1               0x080001cb   Thumb Code     0  libinit2.o(.ARM.Collect$$libinit$$0000000C)
    __rt_lib_shutdown                        0x080001cd   Thumb Code     0  libshutdown.o(.ARM.Collect$$libshutdown$$00000000)
    __rt_lib_shutdown_cpp_1                  0x080001cf   Thumb Code     0  libshutdown2.o(.ARM.Collect$$libshutdown$$00000004)
    __rt_lib_shutdown_fini_1                 0x080001cf   Thumb Code     0  libshutdown2.o(.ARM.Collect$$libshutdown$$00000002)
    __rt_lib_shutdown_fp_trap_1              0x080001cf   Thumb Code     0  libshutdown2.o(.ARM.Collect$$libshutdown$$00000009)
    __rt_lib_shutdown_heap_1                 0x080001cf   Thumb Code     0  libshutdown2.o(.ARM.Collect$$libshutdown$$00000011)
    __rt_lib_shutdown_return                 0x080001cf   Thumb Code     0  libshutdown2.o(.ARM.Collect$$libshutdown$$00000012)
    __rt_lib_shutdown_signal_1               0x080001cf   Thumb Code     0  libshutdown2.o(.ARM.Collect$$libshutdown$$0000000C)
    __rt_lib_shutdown_stdio_1                0x080001cf   Thumb Code     0  libshutdown2.o(.ARM.Collect$$libshutdown$$00000006)
    __rt_lib_shutdown_user_alloc_1           0x080001cf   Thumb Code     0  libshutdown2.o(.ARM.Collect$$libshutdown$$0000000E)
    __rt_entry                               0x080001d1   Thumb Code     0  __rtentry.o(.ARM.Collect$$rtentry$$00000000)
    __rt_entry_presh_1                       0x080001d1   Thumb Code     0  __rtentry2.o(.ARM.Collect$$rtentry$$00000002)
    __rt_entry_sh                            0x080001d1   Thumb Code     0  __rtentry4.o(.ARM.Collect$$rtentry$$00000004)
    __rt_entry_li                            0x080001d7   Thumb Code     0  __rtentry2.o(.ARM.Collect$$rtentry$$0000000A)
    __rt_entry_postsh_1                      0x080001d7   Thumb Code     0  __rtentry2.o(.ARM.Collect$$rtentry$$00000009)
    __rt_entry_main                          0x080001db   Thumb Code     0  __rtentry2.o(.ARM.Collect$$rtentry$$0000000D)
    __rt_entry_postli_1                      0x080001db   Thumb Code     0  __rtentry2.o(.ARM.Collect$$rtentry$$0000000C)
    __rt_exit                                0x080001e3   Thumb Code     0  rtexit.o(.ARM.Collect$$rtexit$$00000000)
    __rt_exit_ls                             0x080001e5   Thumb Code     0  rtexit2.o(.ARM.Collect$$rtexit$$00000003)
    __rt_exit_prels_1                        0x080001e5   Thumb Code     0  rtexit2.o(.ARM.Collect$$rtexit$$00000002)
    __rt_exit_exit                           0x080001e9   Thumb Code     0  rtexit2.o(.ARM.Collect$$rtexit$$00000004)
    Reset_Handler                            0x080001f1   Thumb Code     8  startup_gd32f3x0.o(.text)
    ADC_CMP_IRQHandler                       0x0800020b   Thumb Code     0  startup_gd32f3x0.o(.text)
    CEC_IRQHandler                           0x0800020b   Thumb Code     0  startup_gd32f3x0.o(.text)
    DMA_Channel0_IRQHandler                  0x0800020b   Thumb Code     0  startup_gd32f3x0.o(.text)
    DMA_Channel3_4_IRQHandler                0x0800020b   Thumb Code     0  startup_gd32f3x0.o(.text)
    DMA_Channel5_6_IRQHandler                0x0800020b   Thumb Code     0  startup_gd32f3x0.o(.text)
    EXTI0_1_IRQHandler                       0x0800020b   Thumb Code     0  startup_gd32f3x0.o(.text)
    EXTI2_3_IRQHandler                       0x0800020b   Thumb Code     0  startup_gd32f3x0.o(.text)
    EXTI4_15_IRQHandler                      0x0800020b   Thumb Code     0  startup_gd32f3x0.o(.text)
    FMC_IRQHandler                           0x0800020b   Thumb Code     0  startup_gd32f3x0.o(.text)
    I2C0_ER_IRQHandler                       0x0800020b   Thumb Code     0  startup_gd32f3x0.o(.text)
    I2C0_EV_IRQHandler                       0x0800020b   Thumb Code     0  startup_gd32f3x0.o(.text)
    I2C1_ER_IRQHandler                       0x0800020b   Thumb Code     0  startup_gd32f3x0.o(.text)
    I2C1_EV_IRQHandler                       0x0800020b   Thumb Code     0  startup_gd32f3x0.o(.text)
    LVD_IRQHandler                           0x0800020b   Thumb Code     0  startup_gd32f3x0.o(.text)
    RCU_CTC_IRQHandler                       0x0800020b   Thumb Code     0  startup_gd32f3x0.o(.text)
    RTC_IRQHandler                           0x0800020b   Thumb Code     0  startup_gd32f3x0.o(.text)
    SPI0_IRQHandler                          0x0800020b   Thumb Code     0  startup_gd32f3x0.o(.text)
    SPI1_IRQHandler                          0x0800020b   Thumb Code     0  startup_gd32f3x0.o(.text)
    TIMER0_BRK_UP_TRG_COM_IRQHandler         0x0800020b   Thumb Code     0  startup_gd32f3x0.o(.text)
    TIMER0_Channel_IRQHandler                0x0800020b   Thumb Code     0  startup_gd32f3x0.o(.text)
    TIMER13_IRQHandler                       0x0800020b   Thumb Code     0  startup_gd32f3x0.o(.text)
    TIMER14_IRQHandler                       0x0800020b   Thumb Code     0  startup_gd32f3x0.o(.text)
    TIMER15_IRQHandler                       0x0800020b   Thumb Code     0  startup_gd32f3x0.o(.text)
    TIMER16_IRQHandler                       0x0800020b   Thumb Code     0  startup_gd32f3x0.o(.text)
    TIMER1_IRQHandler                        0x0800020b   Thumb Code     0  startup_gd32f3x0.o(.text)
    TIMER2_IRQHandler                        0x0800020b   Thumb Code     0  startup_gd32f3x0.o(.text)
    TIMER5_DAC_IRQHandler                    0x0800020b   Thumb Code     0  startup_gd32f3x0.o(.text)
    TSI_IRQHandler                           0x0800020b   Thumb Code     0  startup_gd32f3x0.o(.text)
    USART1_IRQHandler                        0x0800020b   Thumb Code     0  startup_gd32f3x0.o(.text)
    USBFS_IRQHandler                         0x0800020b   Thumb Code     0  startup_gd32f3x0.o(.text)
    USBFS_WKUP_IRQHandler                    0x0800020b   Thumb Code     0  startup_gd32f3x0.o(.text)
    WWDGT_IRQHandler                         0x0800020b   Thumb Code     0  startup_gd32f3x0.o(.text)
    __user_initial_stackheap                 0x0800020d   Thumb Code    10  startup_gd32f3x0.o(.text)
    __use_two_region_memory                  0x08000231   Thumb Code     2  heapauxi.o(.text)
    __rt_heap_escrow$2region                 0x08000233   Thumb Code     2  heapauxi.o(.text)
    __rt_heap_expand$2region                 0x08000235   Thumb Code     2  heapauxi.o(.text)
    __user_setup_stackheap                   0x08000237   Thumb Code    74  sys_stackheap_outer.o(.text)
    exit                                     0x08000281   Thumb Code    18  exit.o(.text)
    __user_libspace                          0x08000295   Thumb Code     8  libspace.o(.text)
    __user_perproc_libspace                  0x08000295   Thumb Code     0  libspace.o(.text)
    __user_perthread_libspace                0x08000295   Thumb Code     0  libspace.o(.text)
    _sys_exit                                0x0800029d   Thumb Code     8  sys_exit.o(.text)
    __I$use$semihosting                      0x080002a9   Thumb Code     0  use_no_semi.o(.text)
    __use_no_semihosting_swi                 0x080002a9   Thumb Code     2  use_no_semi.o(.text)
    BusFault_Handler                         0x080002ab   Thumb Code     4  gd32f3x0_it.o(i.BusFault_Handler)
    __semihosting_library_function           0x080002ab   Thumb Code     0  indicate_semi.o(.text)
    DMA_Channel1_2_IRQHandler                0x080002af   Thumb Code    18  gd32f3x0_it.o(i.DMA_Channel1_2_IRQHandler)
    DMA_Uart0_Init                           0x080002c1   Thumb Code   178  uart0_dma.o(i.DMA_Uart0_Init)
    DebugMon_Handler                         0x08000381   Thumb Code     2  gd32f3x0_it.o(i.DebugMon_Handler)
    HardFault_Handler                        0x08000383   Thumb Code     4  gd32f3x0_it.o(i.HardFault_Handler)
    I2C_ReadByte                             0x08000387   Thumb Code   106  i2c.o(i.I2C_ReadByte)
    I2C_WriteByte                            0x080003f1   Thumb Code    92  i2c.o(i.I2C_WriteByte)
    IIC_Ack                                  0x0800044d   Thumb Code    52  i2c.o(i.IIC_Ack)
    IIC_Init                                 0x08000489   Thumb Code    58  i2c.o(i.IIC_Init)
    IIC_NAck                                 0x080004c9   Thumb Code    52  i2c.o(i.IIC_NAck)
    IIC_RecvByte                             0x08000505   Thumb Code    78  i2c.o(i.IIC_RecvByte)
    IIC_SendByte                             0x0800055d   Thumb Code    86  i2c.o(i.IIC_SendByte)
    IIC_SpeedCtl                             0x080005bd   Thumb Code     6  i2c.o(i.IIC_SpeedCtl)
    IIC_Start                                0x080005c9   Thumb Code    52  i2c.o(i.IIC_Start)
    IIC_Stop                                 0x08000605   Thumb Code    52  i2c.o(i.IIC_Stop)
    IIC_WaitAck                              0x08000641   Thumb Code    84  i2c.o(i.IIC_WaitAck)
    MemManage_Handler                        0x0800069d   Thumb Code     4  gd32f3x0_it.o(i.MemManage_Handler)
    NMI_Handler                              0x080006a1   Thumb Code     2  gd32f3x0_it.o(i.NMI_Handler)
    PendSV_Handler                           0x080006cd   Thumb Code     2  gd32f3x0_it.o(i.PendSV_Handler)
    SHT20_GetValue                           0x080006d1   Thumb Code   110  sht20.o(i.SHT20_GetValue)
    SHT20_read_user_reg                      0x08000745   Thumb Code    22  sht20.o(i.SHT20_read_user_reg)
    SHT20_reset                              0x0800075b   Thumb Code    14  sht20.o(i.SHT20_reset)
    SHT2x_CalcRH                             0x08000769   Thumb Code    90  sht20.o(i.SHT2x_CalcRH)
    SHT2x_CalcTemperatureC                   0x080007d9   Thumb Code    90  sht20.o(i.SHT2x_CalcTemperatureC)
    SHT2x_CheckCrc                           0x08000849   Thumb Code    74  sht20.o(i.SHT2x_CheckCrc)
    SHT2x_MeasureHM                          0x08000895   Thumb Code   238  sht20.o(i.SHT2x_MeasureHM)
    SVC_Handler                              0x08000989   Thumb Code     2  gd32f3x0_it.o(i.SVC_Handler)
    SysTick_Handler                          0x0800098b   Thumb Code     8  gd32f3x0_it.o(i.SysTick_Handler)
    SystemInit                               0x08000995   Thumb Code   424  system_gd32f3x0.o(i.SystemInit)
    USART0_IRQHandler                        0x08000b65   Thumb Code    26  gd32f3x0_it.o(i.USART0_IRQHandler)
    Uart0_DMA_Rx_Data                        0x08000b89   Thumb Code    50  uart0_dma.o(i.Uart0_DMA_Rx_Data)
    Uart0_Start_DMA_Tx                       0x08000bc9   Thumb Code    22  uart0_dma.o(i.Uart0_Start_DMA_Tx)
    Uart0_dma_Tx_Over                        0x08000be9   Thumb Code    24  uart0_dma.o(i.Uart0_dma_Tx_Over)
    UsageFault_Handler                       0x08000c05   Thumb Code     4  gd32f3x0_it.o(i.UsageFault_Handler)
    delay_decrement                          0x08000c09   Thumb Code    18  systick.o(i.delay_decrement)
    delay_ms                                 0x08000c21   Thumb Code    24  systick.o(i.delay_ms)
    delay_us                                 0x08000c39   Thumb Code    76  systick.o(i.delay_us)
    dma_channel_disable                      0x08000c8d   Thumb Code    30  gd32f3x0_dma.o(i.dma_channel_disable)
    dma_channel_enable                       0x08000cb1   Thumb Code    30  gd32f3x0_dma.o(i.dma_channel_enable)
    dma_circulation_disable                  0x08000cd5   Thumb Code    30  gd32f3x0_dma.o(i.dma_circulation_disable)
    dma_deinit                               0x08000cf9   Thumb Code    88  gd32f3x0_dma.o(i.dma_deinit)
    dma_flag_clear                           0x08000d55   Thumb Code    18  gd32f3x0_dma.o(i.dma_flag_clear)
    dma_init                                 0x08000d6d   Thumb Code   280  gd32f3x0_dma.o(i.dma_init)
    dma_interrupt_enable                     0x08000e89   Thumb Code    30  gd32f3x0_dma.o(i.dma_interrupt_enable)
    dma_interrupt_flag_get                   0x08000ead   Thumb Code   134  gd32f3x0_dma.o(i.dma_interrupt_flag_get)
    dma_memory_to_memory_disable             0x08000f39   Thumb Code    30  gd32f3x0_dma.o(i.dma_memory_to_memory_disable)
    dma_struct_para_init                     0x08000f5d   Thumb Code    22  gd32f3x0_dma.o(i.dma_struct_para_init)
    dma_transfer_number_get                  0x08000f75   Thumb Code    16  gd32f3x0_dma.o(i.dma_transfer_number_get)
    gd_led_config                            0x08000f89   Thumb Code    48  main.o(i.gd_led_config)
    gd_led_toggle                            0x08000fb9   Thumb Code    10  main.o(i.gd_led_toggle)
    gpio_af_set                              0x08000fc3   Thumb Code    94  gd32f3x0_gpio.o(i.gpio_af_set)
    gpio_bit_reset                           0x08001021   Thumb Code     4  gd32f3x0_gpio.o(i.gpio_bit_reset)
    gpio_bit_set                             0x08001025   Thumb Code     4  gd32f3x0_gpio.o(i.gpio_bit_set)
    gpio_input_bit_get                       0x08001029   Thumb Code    16  gd32f3x0_gpio.o(i.gpio_input_bit_get)
    gpio_mode_set                            0x08001039   Thumb Code    78  gd32f3x0_gpio.o(i.gpio_mode_set)
    gpio_output_options_set                  0x08001087   Thumb Code   124  gd32f3x0_gpio.o(i.gpio_output_options_set)
    main                                     0x08001105   Thumb Code    88  main.o(i.main)
    nvic_irq_enable                          0x0800116d   Thumb Code   162  gd32f3x0_misc.o(i.nvic_irq_enable)
    nvic_priority_group_set                  0x08001219   Thumb Code    10  gd32f3x0_misc.o(i.nvic_priority_group_set)
    nvic_vector_table_set                    0x0800122d   Thumb Code    16  gd32f3x0_misc.o(i.nvic_vector_table_set)
    rcu_clock_freq_get                       0x08001245   Thumb Code   628  gd32f3x0_rcu.o(i.rcu_clock_freq_get)
    rcu_periph_clock_enable                  0x080014e1   Thumb Code    28  gd32f3x0_rcu.o(i.rcu_periph_clock_enable)
    rcu_periph_reset_disable                 0x08001501   Thumb Code    28  gd32f3x0_rcu.o(i.rcu_periph_reset_disable)
    rcu_periph_reset_enable                  0x08001521   Thumb Code    28  gd32f3x0_rcu.o(i.rcu_periph_reset_enable)
    systick_config                           0x08001611   Thumb Code    74  systick.o(i.systick_config)
    uart0_dma_init                           0x08001661   Thumb Code   198  uart0_dma.o(i.uart0_dma_init)
    usart_baudrate_set                       0x0800172d   Thumb Code   120  gd32f3x0_usart.o(i.usart_baudrate_set)
    usart_deinit                             0x080017a9   Thumb Code    58  gd32f3x0_usart.o(i.usart_deinit)
    usart_dma_receive_config                 0x080017e9   Thumb Code    16  gd32f3x0_usart.o(i.usart_dma_receive_config)
    usart_dma_transmit_config                0x080017f9   Thumb Code    16  gd32f3x0_usart.o(i.usart_dma_transmit_config)
    usart_enable                             0x08001809   Thumb Code    10  gd32f3x0_usart.o(i.usart_enable)
    usart_interrupt_enable                   0x08001813   Thumb Code    26  gd32f3x0_usart.o(i.usart_interrupt_enable)
    usart_interrupt_flag_clear               0x0800182d   Thumb Code    38  gd32f3x0_usart.o(i.usart_interrupt_flag_clear)
    usart_interrupt_flag_get                 0x08001859   Thumb Code    56  gd32f3x0_usart.o(i.usart_interrupt_flag_get)
    usart_receive_config                     0x08001891   Thumb Code    16  gd32f3x0_usart.o(i.usart_receive_config)
    usart_transmit_config                    0x080018a1   Thumb Code    16  gd32f3x0_usart.o(i.usart_transmit_config)
    __aeabi_d2f                              0x080018b1   Thumb Code     0  d2f.o(x$fpl$d2f)
    _d2f                                     0x080018b1   Thumb Code    98  d2f.o(x$fpl$d2f)
    __aeabi_dadd                             0x08001915   Thumb Code     0  daddsub_clz.o(x$fpl$dadd)
    _dadd                                    0x08001915   Thumb Code   332  daddsub_clz.o(x$fpl$dadd)
    __aeabi_dmul                             0x08001a65   Thumb Code     0  dmul.o(x$fpl$dmul)
    _dmul                                    0x08001a65   Thumb Code   332  dmul.o(x$fpl$dmul)
    __fpl_dnaninf                            0x08001bb9   Thumb Code   156  dnaninf.o(x$fpl$dnaninf)
    __fpl_dretinf                            0x08001c55   Thumb Code    12  dretinf.o(x$fpl$dretinf)
    __aeabi_dsub                             0x08001c61   Thumb Code     0  daddsub_clz.o(x$fpl$dsub)
    _dsub                                    0x08001c61   Thumb Code   464  daddsub_clz.o(x$fpl$dsub)
    __aeabi_f2d                              0x08001e35   Thumb Code     0  f2d.o(x$fpl$f2d)
    _f2d                                     0x08001e35   Thumb Code    86  f2d.o(x$fpl$f2d)
    __fpl_fnaninf                            0x08001e8b   Thumb Code   140  fnaninf.o(x$fpl$fnaninf)
    _fp_init                                 0x08001f17   Thumb Code    10  fpinit.o(x$fpl$fpinit)
    __fplib_config_fpu_vfp                   0x08001f1f   Thumb Code     0  fpinit.o(x$fpl$fpinit)
    __fplib_config_pureend_doubles           0x08001f1f   Thumb Code     0  fpinit.o(x$fpl$fpinit)
    __fpl_fretinf                            0x08001f21   Thumb Code    10  fretinf.o(x$fpl$fretinf)
    __I$use$fp                               0x08001f2a   Number         0  usenofp.o(x$fpl$usenofp)
    Region$$Table$$Base                      0x08001f2c   Number         0  anon$$obj.o(Region$$Table)
    Region$$Table$$Limit                     0x08001f4c   Number         0  anon$$obj.o(Region$$Table)
    flag_uart0_tx                            0x20000004   Data           1  uart0_dma.o(.data)
    flag_uart0_rx                            0x20000005   Data           1  uart0_dma.o(.data)
    uart0_rx_index                           0x20000006   Data           1  uart0_dma.o(.data)
    iicInfo                                  0x20000008   Data           2  i2c.o(.data)
    sht20Info                                0x2000000c   Data           8  sht20.o(.data)
    SystemCoreClock                          0x20000014   Data           4  system_gd32f3x0.o(.data)
    uart0_tx_buff                            0x20000018   Data         100  uart0_dma.o(.bss)
    uart0_rx_buff                            0x2000007c   Data         100  uart0_dma.o(.bss)
    __libspace_start                         0x200000e0   Data          96  libspace.o(.bss)
    __temporary_stack_top$libspace           0x20000140   Data           0  libspace.o(.bss)



==============================================================================

Memory Map of the image

  Image Entry point : 0x08000151

  Load Region LR_IROM1 (Base: 0x08000000, Size: 0x00001f64, Max: 0x00010000, ABSOLUTE)

    Execution Region ER_IROM1 (Exec base: 0x08000000, Load base: 0x08000000, Size: 0x00001f4c, Max: 0x00010000, ABSOLUTE)

    Exec Addr    Load Addr    Size         Type   Attr      Idx    E Section Name        Object

    0x08000000   0x08000000   0x00000150   Data   RO         4196    RESET               startup_gd32f3x0.o
    0x08000150   0x08000150   0x00000008   Code   RO         4205  * !!!main             c_w.l(__main.o)
    0x08000158   0x08000158   0x00000034   Code   RO         4385    !!!scatter          c_w.l(__scatter.o)
    0x0800018c   0x0800018c   0x0000001a   Code   RO         4387    !!handler_copy      c_w.l(__scatter_copy.o)
    0x080001a6   0x080001a6   0x00000002   PAD
    0x080001a8   0x080001a8   0x0000001c   Code   RO         4389    !!handler_zi        c_w.l(__scatter_zi.o)
    0x080001c4   0x080001c4   0x00000002   Code   RO         4253    .ARM.Collect$$libinit$$00000000  c_w.l(libinit.o)
    0x080001c6   0x080001c6   0x00000004   Code   RO         4259    .ARM.Collect$$libinit$$00000001  c_w.l(libinit2.o)
    0x080001ca   0x080001ca   0x00000000   Code   RO         4262    .ARM.Collect$$libinit$$00000004  c_w.l(libinit2.o)
    0x080001ca   0x080001ca   0x00000000   Code   RO         4265    .ARM.Collect$$libinit$$0000000A  c_w.l(libinit2.o)
    0x080001ca   0x080001ca   0x00000000   Code   RO         4267    .ARM.Collect$$libinit$$0000000C  c_w.l(libinit2.o)
    0x080001ca   0x080001ca   0x00000000   Code   RO         4269    .ARM.Collect$$libinit$$0000000E  c_w.l(libinit2.o)
    0x080001ca   0x080001ca   0x00000000   Code   RO         4272    .ARM.Collect$$libinit$$00000011  c_w.l(libinit2.o)
    0x080001ca   0x080001ca   0x00000000   Code   RO         4274    .ARM.Collect$$libinit$$00000013  c_w.l(libinit2.o)
    0x080001ca   0x080001ca   0x00000000   Code   RO         4276    .ARM.Collect$$libinit$$00000015  c_w.l(libinit2.o)
    0x080001ca   0x080001ca   0x00000000   Code   RO         4278    .ARM.Collect$$libinit$$00000017  c_w.l(libinit2.o)
    0x080001ca   0x080001ca   0x00000000   Code   RO         4280    .ARM.Collect$$libinit$$00000019  c_w.l(libinit2.o)
    0x080001ca   0x080001ca   0x00000000   Code   RO         4282    .ARM.Collect$$libinit$$0000001B  c_w.l(libinit2.o)
    0x080001ca   0x080001ca   0x00000000   Code   RO         4284    .ARM.Collect$$libinit$$0000001D  c_w.l(libinit2.o)
    0x080001ca   0x080001ca   0x00000000   Code   RO         4286    .ARM.Collect$$libinit$$0000001F  c_w.l(libinit2.o)
    0x080001ca   0x080001ca   0x00000000   Code   RO         4288    .ARM.Collect$$libinit$$00000021  c_w.l(libinit2.o)
    0x080001ca   0x080001ca   0x00000000   Code   RO         4290    .ARM.Collect$$libinit$$00000023  c_w.l(libinit2.o)
    0x080001ca   0x080001ca   0x00000000   Code   RO         4292    .ARM.Collect$$libinit$$00000025  c_w.l(libinit2.o)
    0x080001ca   0x080001ca   0x00000000   Code   RO         4296    .ARM.Collect$$libinit$$0000002C  c_w.l(libinit2.o)
    0x080001ca   0x080001ca   0x00000000   Code   RO         4298    .ARM.Collect$$libinit$$0000002E  c_w.l(libinit2.o)
    0x080001ca   0x080001ca   0x00000000   Code   RO         4300    .ARM.Collect$$libinit$$00000030  c_w.l(libinit2.o)
    0x080001ca   0x080001ca   0x00000000   Code   RO         4302    .ARM.Collect$$libinit$$00000032  c_w.l(libinit2.o)
    0x080001ca   0x080001ca   0x00000002   Code   RO         4303    .ARM.Collect$$libinit$$00000033  c_w.l(libinit2.o)
    0x080001cc   0x080001cc   0x00000002   Code   RO         4323    .ARM.Collect$$libshutdown$$00000000  c_w.l(libshutdown.o)
    0x080001ce   0x080001ce   0x00000000   Code   RO         4336    .ARM.Collect$$libshutdown$$00000002  c_w.l(libshutdown2.o)
    0x080001ce   0x080001ce   0x00000000   Code   RO         4338    .ARM.Collect$$libshutdown$$00000004  c_w.l(libshutdown2.o)
    0x080001ce   0x080001ce   0x00000000   Code   RO         4340    .ARM.Collect$$libshutdown$$00000006  c_w.l(libshutdown2.o)
    0x080001ce   0x080001ce   0x00000000   Code   RO         4343    .ARM.Collect$$libshutdown$$00000009  c_w.l(libshutdown2.o)
    0x080001ce   0x080001ce   0x00000000   Code   RO         4346    .ARM.Collect$$libshutdown$$0000000C  c_w.l(libshutdown2.o)
    0x080001ce   0x080001ce   0x00000000   Code   RO         4348    .ARM.Collect$$libshutdown$$0000000E  c_w.l(libshutdown2.o)
    0x080001ce   0x080001ce   0x00000000   Code   RO         4351    .ARM.Collect$$libshutdown$$00000011  c_w.l(libshutdown2.o)
    0x080001ce   0x080001ce   0x00000002   Code   RO         4352    .ARM.Collect$$libshutdown$$00000012  c_w.l(libshutdown2.o)
    0x080001d0   0x080001d0   0x00000000   Code   RO         4219    .ARM.Collect$$rtentry$$00000000  c_w.l(__rtentry.o)
    0x080001d0   0x080001d0   0x00000000   Code   RO         4230    .ARM.Collect$$rtentry$$00000002  c_w.l(__rtentry2.o)
    0x080001d0   0x080001d0   0x00000006   Code   RO         4242    .ARM.Collect$$rtentry$$00000004  c_w.l(__rtentry4.o)
    0x080001d6   0x080001d6   0x00000000   Code   RO         4232    .ARM.Collect$$rtentry$$00000009  c_w.l(__rtentry2.o)
    0x080001d6   0x080001d6   0x00000004   Code   RO         4233    .ARM.Collect$$rtentry$$0000000A  c_w.l(__rtentry2.o)
    0x080001da   0x080001da   0x00000000   Code   RO         4235    .ARM.Collect$$rtentry$$0000000C  c_w.l(__rtentry2.o)
    0x080001da   0x080001da   0x00000008   Code   RO         4236    .ARM.Collect$$rtentry$$0000000D  c_w.l(__rtentry2.o)
    0x080001e2   0x080001e2   0x00000002   Code   RO         4257    .ARM.Collect$$rtexit$$00000000  c_w.l(rtexit.o)
    0x080001e4   0x080001e4   0x00000000   Code   RO         4305    .ARM.Collect$$rtexit$$00000002  c_w.l(rtexit2.o)
    0x080001e4   0x080001e4   0x00000004   Code   RO         4306    .ARM.Collect$$rtexit$$00000003  c_w.l(rtexit2.o)
    0x080001e8   0x080001e8   0x00000006   Code   RO         4307    .ARM.Collect$$rtexit$$00000004  c_w.l(rtexit2.o)
    0x080001ee   0x080001ee   0x00000002   PAD
    0x080001f0   0x080001f0   0x00000040   Code   RO         4197    .text               startup_gd32f3x0.o
    0x08000230   0x08000230   0x00000006   Code   RO         4203    .text               c_w.l(heapauxi.o)
    0x08000236   0x08000236   0x0000004a   Code   RO         4244    .text               c_w.l(sys_stackheap_outer.o)
    0x08000280   0x08000280   0x00000012   Code   RO         4246    .text               c_w.l(exit.o)
    0x08000292   0x08000292   0x00000002   PAD
    0x08000294   0x08000294   0x00000008   Code   RO         4254    .text               c_w.l(libspace.o)
    0x0800029c   0x0800029c   0x0000000c   Code   RO         4315    .text               c_w.l(sys_exit.o)
    0x080002a8   0x080002a8   0x00000002   Code   RO         4326    .text               c_w.l(use_no_semi.o)
    0x080002aa   0x080002aa   0x00000000   Code   RO         4328    .text               c_w.l(indicate_semi.o)
    0x080002aa   0x080002aa   0x00000004   Code   RO            3    i.BusFault_Handler  gd32f3x0_it.o
    0x080002ae   0x080002ae   0x00000012   Code   RO            4    i.DMA_Channel1_2_IRQHandler  gd32f3x0_it.o
    0x080002c0   0x080002c0   0x000000c0   Code   RO          332    i.DMA_Uart0_Init    uart0_dma.o
    0x08000380   0x08000380   0x00000002   Code   RO            5    i.DebugMon_Handler  gd32f3x0_it.o
    0x08000382   0x08000382   0x00000004   Code   RO            6    i.HardFault_Handler  gd32f3x0_it.o
    0x08000386   0x08000386   0x0000006a   Code   RO          383    i.I2C_ReadByte      i2c.o
    0x080003f0   0x080003f0   0x0000005c   Code   RO          385    i.I2C_WriteByte     i2c.o
    0x0800044c   0x0800044c   0x0000003c   Code   RO          387    i.IIC_Ack           i2c.o
    0x08000488   0x08000488   0x00000040   Code   RO          388    i.IIC_Init          i2c.o
    0x080004c8   0x080004c8   0x0000003c   Code   RO          389    i.IIC_NAck          i2c.o
    0x08000504   0x08000504   0x00000058   Code   RO          390    i.IIC_RecvByte      i2c.o
    0x0800055c   0x0800055c   0x00000060   Code   RO          391    i.IIC_SendByte      i2c.o
    0x080005bc   0x080005bc   0x0000000c   Code   RO          392    i.IIC_SpeedCtl      i2c.o
    0x080005c8   0x080005c8   0x0000003c   Code   RO          393    i.IIC_Start         i2c.o
    0x08000604   0x08000604   0x0000003c   Code   RO          394    i.IIC_Stop          i2c.o
    0x08000640   0x08000640   0x0000005c   Code   RO          395    i.IIC_WaitAck       i2c.o
    0x0800069c   0x0800069c   0x00000004   Code   RO            7    i.MemManage_Handler  gd32f3x0_it.o
    0x080006a0   0x080006a0   0x00000002   Code   RO            8    i.NMI_Handler       gd32f3x0_it.o
    0x080006a2   0x080006a2   0x00000002   PAD
    0x080006a4   0x080006a4   0x00000028   Code   RO          225    i.NVIC_SetPriority  systick.o
    0x080006cc   0x080006cc   0x00000002   Code   RO            9    i.PendSV_Handler    gd32f3x0_it.o
    0x080006ce   0x080006ce   0x00000002   PAD
    0x080006d0   0x080006d0   0x00000074   Code   RO          481    i.SHT20_GetValue    sht20.o
    0x08000744   0x08000744   0x00000016   Code   RO          482    i.SHT20_read_user_reg  sht20.o
    0x0800075a   0x0800075a   0x0000000e   Code   RO          483    i.SHT20_reset       sht20.o
    0x08000768   0x08000768   0x00000070   Code   RO          484    i.SHT2x_CalcRH      sht20.o
    0x080007d8   0x080007d8   0x00000070   Code   RO          485    i.SHT2x_CalcTemperatureC  sht20.o
    0x08000848   0x08000848   0x0000004a   Code   RO          486    i.SHT2x_CheckCrc    sht20.o
    0x08000892   0x08000892   0x00000002   PAD
    0x08000894   0x08000894   0x000000f4   Code   RO          487    i.SHT2x_MeasureHM   sht20.o
    0x08000988   0x08000988   0x00000002   Code   RO           10    i.SVC_Handler       gd32f3x0_it.o
    0x0800098a   0x0800098a   0x00000008   Code   RO           11    i.SysTick_Handler   gd32f3x0_it.o
    0x08000992   0x08000992   0x00000002   PAD
    0x08000994   0x08000994   0x000001d0   Code   RO          545    i.SystemInit        system_gd32f3x0.o
    0x08000b64   0x08000b64   0x00000024   Code   RO           12    i.USART0_IRQHandler  gd32f3x0_it.o
    0x08000b88   0x08000b88   0x00000040   Code   RO          333    i.Uart0_DMA_Rx_Data  uart0_dma.o
    0x08000bc8   0x08000bc8   0x00000020   Code   RO          334    i.Uart0_Start_DMA_Tx  uart0_dma.o
    0x08000be8   0x08000be8   0x0000001c   Code   RO          335    i.Uart0_dma_Tx_Over  uart0_dma.o
    0x08000c04   0x08000c04   0x00000004   Code   RO           13    i.UsageFault_Handler  gd32f3x0_it.o
    0x08000c08   0x08000c08   0x00000018   Code   RO          227    i.delay_decrement   systick.o
    0x08000c20   0x08000c20   0x00000018   Code   RO          228    i.delay_ms          systick.o
    0x08000c38   0x08000c38   0x00000054   Code   RO          229    i.delay_us          systick.o
    0x08000c8c   0x08000c8c   0x00000024   Code   RO         1187    i.dma_channel_disable  gd32f3x0_dma.o
    0x08000cb0   0x08000cb0   0x00000024   Code   RO         1188    i.dma_channel_enable  gd32f3x0_dma.o
    0x08000cd4   0x08000cd4   0x00000024   Code   RO         1189    i.dma_circulation_disable  gd32f3x0_dma.o
    0x08000cf8   0x08000cf8   0x0000005c   Code   RO         1191    i.dma_deinit        gd32f3x0_dma.o
    0x08000d54   0x08000d54   0x00000018   Code   RO         1192    i.dma_flag_clear    gd32f3x0_dma.o
    0x08000d6c   0x08000d6c   0x0000011c   Code   RO         1194    i.dma_init          gd32f3x0_dma.o
    0x08000e88   0x08000e88   0x00000024   Code   RO         1196    i.dma_interrupt_enable  gd32f3x0_dma.o
    0x08000eac   0x08000eac   0x0000008c   Code   RO         1198    i.dma_interrupt_flag_get  gd32f3x0_dma.o
    0x08000f38   0x08000f38   0x00000024   Code   RO         1202    i.dma_memory_to_memory_disable  gd32f3x0_dma.o
    0x08000f5c   0x08000f5c   0x00000016   Code   RO         1210    i.dma_struct_para_init  gd32f3x0_dma.o
    0x08000f72   0x08000f72   0x00000002   PAD
    0x08000f74   0x08000f74   0x00000014   Code   RO         1213    i.dma_transfer_number_get  gd32f3x0_dma.o
    0x08000f88   0x08000f88   0x00000030   Code   RO          182    i.gd_led_config     main.o
    0x08000fb8   0x08000fb8   0x0000000a   Code   RO          183    i.gd_led_toggle     main.o
    0x08000fc2   0x08000fc2   0x0000005e   Code   RO         1711    i.gpio_af_set       gd32f3x0_gpio.o
    0x08001020   0x08001020   0x00000004   Code   RO         1712    i.gpio_bit_reset    gd32f3x0_gpio.o
    0x08001024   0x08001024   0x00000004   Code   RO         1713    i.gpio_bit_set      gd32f3x0_gpio.o
    0x08001028   0x08001028   0x00000010   Code   RO         1717    i.gpio_input_bit_get  gd32f3x0_gpio.o
    0x08001038   0x08001038   0x0000004e   Code   RO         1719    i.gpio_mode_set     gd32f3x0_gpio.o
    0x08001086   0x08001086   0x0000007c   Code   RO         1721    i.gpio_output_options_set  gd32f3x0_gpio.o
    0x08001102   0x08001102   0x00000002   PAD
    0x08001104   0x08001104   0x00000068   Code   RO          184    i.main              main.o
    0x0800116c   0x0800116c   0x000000ac   Code   RO         2016    i.nvic_irq_enable   gd32f3x0_misc.o
    0x08001218   0x08001218   0x00000014   Code   RO         2017    i.nvic_priority_group_set  gd32f3x0_misc.o
    0x0800122c   0x0800122c   0x00000018   Code   RO         2018    i.nvic_vector_table_set  gd32f3x0_misc.o
    0x08001244   0x08001244   0x0000029c   Code   RO         2216    i.rcu_clock_freq_get  gd32f3x0_rcu.o
    0x080014e0   0x080014e0   0x00000020   Code   RO         2236    i.rcu_periph_clock_enable  gd32f3x0_rcu.o
    0x08001500   0x08001500   0x00000020   Code   RO         2239    i.rcu_periph_reset_disable  gd32f3x0_rcu.o
    0x08001520   0x08001520   0x00000020   Code   RO         2240    i.rcu_periph_reset_enable  gd32f3x0_rcu.o
    0x08001540   0x08001540   0x000000c8   Code   RO          546    i.system_clock_72m_hxtal  system_gd32f3x0.o
    0x08001608   0x08001608   0x00000008   Code   RO          547    i.system_clock_config  system_gd32f3x0.o
    0x08001610   0x08001610   0x00000050   Code   RO          230    i.systick_config    systick.o
    0x08001660   0x08001660   0x000000cc   Code   RO          336    i.uart0_dma_init    uart0_dma.o
    0x0800172c   0x0800172c   0x0000007c   Code   RO         3693    i.usart_baudrate_set  gd32f3x0_usart.o
    0x080017a8   0x080017a8   0x00000040   Code   RO         3701    i.usart_deinit      gd32f3x0_usart.o
    0x080017e8   0x080017e8   0x00000010   Code   RO         3704    i.usart_dma_receive_config  gd32f3x0_usart.o
    0x080017f8   0x080017f8   0x00000010   Code   RO         3705    i.usart_dma_transmit_config  gd32f3x0_usart.o
    0x08001808   0x08001808   0x0000000a   Code   RO         3708    i.usart_enable      gd32f3x0_usart.o
    0x08001812   0x08001812   0x0000001a   Code   RO         3717    i.usart_interrupt_enable  gd32f3x0_usart.o
    0x0800182c   0x0800182c   0x0000002c   Code   RO         3718    i.usart_interrupt_flag_clear  gd32f3x0_usart.o
    0x08001858   0x08001858   0x00000038   Code   RO         3719    i.usart_interrupt_flag_get  gd32f3x0_usart.o
    0x08001890   0x08001890   0x00000010   Code   RO         3735    i.usart_receive_config  gd32f3x0_usart.o
    0x080018a0   0x080018a0   0x00000010   Code   RO         3756    i.usart_transmit_config  gd32f3x0_usart.o
    0x080018b0   0x080018b0   0x00000062   Code   RO         4207    x$fpl$d2f           fz_wm.l(d2f.o)
    0x08001912   0x08001912   0x00000002   PAD
    0x08001914   0x08001914   0x00000150   Code   RO         4209    x$fpl$dadd          fz_wm.l(daddsub_clz.o)
    0x08001a64   0x08001a64   0x00000154   Code   RO         4215    x$fpl$dmul          fz_wm.l(dmul.o)
    0x08001bb8   0x08001bb8   0x0000009c   Code   RO         4220    x$fpl$dnaninf       fz_wm.l(dnaninf.o)
    0x08001c54   0x08001c54   0x0000000c   Code   RO         4222    x$fpl$dretinf       fz_wm.l(dretinf.o)
    0x08001c60   0x08001c60   0x000001d4   Code   RO         4211    x$fpl$dsub          fz_wm.l(daddsub_clz.o)
    0x08001e34   0x08001e34   0x00000056   Code   RO         4217    x$fpl$f2d           fz_wm.l(f2d.o)
    0x08001e8a   0x08001e8a   0x0000008c   Code   RO         4224    x$fpl$fnaninf       fz_wm.l(fnaninf.o)
    0x08001f16   0x08001f16   0x0000000a   Code   RO         4313    x$fpl$fpinit        fz_wm.l(fpinit.o)
    0x08001f20   0x08001f20   0x0000000a   Code   RO         4226    x$fpl$fretinf       fz_wm.l(fretinf.o)
    0x08001f2a   0x08001f2a   0x00000000   Code   RO         4228    x$fpl$usenofp       fz_wm.l(usenofp.o)
    0x08001f2a   0x08001f2a   0x00000002   PAD
    0x08001f2c   0x08001f2c   0x00000020   Data   RO         4383    Region$$Table       anon$$obj.o


    Execution Region RW_IRAM1 (Exec base: 0x20000000, Load base: 0x08001f4c, Size: 0x00000940, Max: 0x00002000, ABSOLUTE)

    Exec Addr    Load Addr    Size         Type   Attr      Idx    E Section Name        Object

    0x20000000   0x08001f4c   0x00000004   Data   RW          231    .data               systick.o
    0x20000004   0x08001f50   0x00000003   Data   RW          338    .data               uart0_dma.o
    0x20000007   0x08001f53   0x00000001   PAD
    0x20000008   0x08001f54   0x00000002   Data   RW          396    .data               i2c.o
    0x2000000a   0x08001f56   0x00000002   PAD
    0x2000000c   0x08001f58   0x00000008   Data   RW          489    .data               sht20.o
    0x20000014   0x08001f60   0x00000004   Data   RW          548    .data               system_gd32f3x0.o
    0x20000018        -       0x000000c8   Zero   RW          337    .bss                uart0_dma.o
    0x200000e0        -       0x00000060   Zero   RW         4255    .bss                c_w.l(libspace.o)
    0x20000140        -       0x00000400   Zero   RW         4195    HEAP                startup_gd32f3x0.o
    0x20000540        -       0x00000400   Zero   RW         4194    STACK               startup_gd32f3x0.o


==============================================================================

Image component sizes


      Code (inc. data)   RO Data    RW Data    ZI Data      Debug   Object Name

       762         54          0          0          0       6638   gd32f3x0_dma.o
       320          0          0          0          0       4133   gd32f3x0_gpio.o
        86         10          0          0          0      43022   gd32f3x0_it.o
       216         28          0          0          0       1920   gd32f3x0_misc.o
       764         60          0          0          0       3564   gd32f3x0_rcu.o
       388         16          0          0          0       6202   gd32f3x0_usart.o
       790         72          0          2          0       6755   i2c.o
       162         16          0          0          0       1495   main.o
       694         56          0          8          0       5911   sht20.o
        64         26        336          0       2048        908   startup_gd32f3x0.o
       672         54          0          4          0       2059   system_gd32f3x0.o
       252         28          0          4          0      27864   systick.o
       520         48          0          3        200       3296   uart0_dma.o

    ----------------------------------------------------------------------
      5702        468        368         24       2248     113767   Object Totals
         0          0         32          0          0          0   (incl. Generated)
        12          0          0          3          0          0   (incl. Padding)

    ----------------------------------------------------------------------

      Code (inc. data)   RO Data    RW Data    ZI Data      Debug   Library Member Name

         8          0          0          0          0         68   __main.o
         0          0          0          0          0          0   __rtentry.o
        12          0          0          0          0          0   __rtentry2.o
         6          0          0          0          0          0   __rtentry4.o
        52          8          0          0          0          0   __scatter.o
        26          0          0          0          0          0   __scatter_copy.o
        28          0          0          0          0          0   __scatter_zi.o
        18          0          0          0          0         80   exit.o
         6          0          0          0          0        152   heapauxi.o
         0          0          0          0          0          0   indicate_semi.o
         2          0          0          0          0          0   libinit.o
         6          0          0          0          0          0   libinit2.o
         2          0          0          0          0          0   libshutdown.o
         2          0          0          0          0          0   libshutdown2.o
         8          4          0          0         96         68   libspace.o
         2          0          0          0          0          0   rtexit.o
        10          0          0          0          0          0   rtexit2.o
        12          4          0          0          0         68   sys_exit.o
        74          0          0          0          0         80   sys_stackheap_outer.o
         2          0          0          0          0         68   use_no_semi.o
        98          4          0          0          0        140   d2f.o
       804         16          0          0          0        368   daddsub_clz.o
       340         12          0          0          0        152   dmul.o
       156          4          0          0          0        140   dnaninf.o
        12          0          0          0          0        116   dretinf.o
        86          4          0          0          0        132   f2d.o
       140          4          0          0          0        132   fnaninf.o
        10          0          0          0          0        116   fpinit.o
        10          0          0          0          0        116   fretinf.o
         0          0          0          0          0          0   usenofp.o

    ----------------------------------------------------------------------
      1942         60          0          0         96       1996   Library Totals
        10          0          0          0          0          0   (incl. Padding)

    ----------------------------------------------------------------------

      Code (inc. data)   RO Data    RW Data    ZI Data      Debug   Library Name

       276         16          0          0         96        584   c_w.l
      1656         44          0          0          0       1412   fz_wm.l

    ----------------------------------------------------------------------
      1942         60          0          0         96       1996   Library Totals

    ----------------------------------------------------------------------

==============================================================================


      Code (inc. data)   RO Data    RW Data    ZI Data      Debug   

      7644        528        368         24       2344     107307   Grand Totals
      7644        528        368         24       2344     107307   ELF Image Totals
      7644        528        368         24          0          0   ROM Totals

==============================================================================

    Total RO  Size (Code + RO Data)                 8012 (   7.82kB)
    Total RW  Size (RW Data + ZI Data)              2368 (   2.31kB)
    Total ROM Size (Code + RO Data + RW Data)       8036 (   7.85kB)

==============================================================================

