:020000040800F2
:1000000040090020F1010008A10600088303000850
:100010009D060008AB020008050C00080000000067
:100020000000000000000000000000008909000836
:100030008103000800000000CD0600088B090008BD
:100040000B0200080B0200080B0200080B0200085C
:100050000B0200080B0200080B0200080B0200084C
:100060000B0200080B020008AF0200080B02000898
:100070000B0200080B0200080B0200080B0200082C
:100080000B0200080B020008000000000B02000831
:100090000B0200080B0200080B0200080B0200080C
:1000A0000B0200080B0200080B020008650B000899
:1000B0000B020008000000000B0200080000000016
:1000C0000B020008000000000B0200080000000006
:1000D0000000000000000000000000000000000020
:1000E00000000000000000000B02000800000000FB
:1000F0000000000000000000000000000000000000
:100100000B020008000000000000000000000000DA
:1001100000000000000000000000000000000000DF
:1001200000000000000000000000000000000000CF
:1001300000000000000000000000000000000000BF
:100140000000000000000000000000000B0200089A
:1001500000F002F800F03CF80AA090E8000C82449D
:100160008344AAF10107DA4501D100F031F8AFF27A
:10017000090EBAE80F0013F0010F18BFFB1A43F085
:1001800001031847A81D0000C81D0000103A24BF35
:1001900078C878C1FAD8520724BF30C830C144BFEC
:1001A00004680C607047000000230024002500262E
:1001B000103A28BF78C1FBD8520728BF30C148BFCA
:1001C0000B6070471FB501F0A6FE1FBD10B510BD36
:1001D00000F031F81146FFF7F5FF00F093FF00F053
:1001E0004FF803B4FFF7F2FF03BC00F057F800002C
:1001F0000948804709480047FEE7FEE7FEE7FEE7BB
:10020000FEE7FEE7FEE7FEE7FEE7FEE704480549F6
:10021000054A064B70470000950900085101000887
:10022000400100204009002040050020400500203A
:10023000704770477047754600F02CF8AE460500D1
:100240006946534620F00700854618B020B5FFF7F1
:10025000DDFFBDE820404FF000064FF000074FF0F3
:1002600000084FF0000B21F00701AC46ACE8C009D4
:10027000ACE8C009ACE8C009ACE8C0098D467047DD
:1002800010B50446AFF300802046BDE81040FFF7EC
:10029000A8BF000000487047E00000200149182076
:1002A000ABBEFEE726000200704700BFFEE710B5B8
:1002B0000221012000F0FAFD08B100F095FC10BD0C
:1002C00000B589B04FF4A06001F00AF9012000F0F8
:1002D00013FD01A800F042FE01208DF81900254809
:1002E000049001208DF81800002005900790224806
:1002F000019000208DF80C0002904FF440500890BF
:1003000001A9012000F032FD022000F0F5FC0020E0
:100310008DF819001948049001208DF8180000206C
:100320000590642007901448001F019000208DF86C
:100330000C0005904FF44050089001A9022000F0F5
:1003400015FD012000F0C6FC012000F0F5FD0220A3
:1003500000F0C0FC022000F0EFFD012000F096FC50
:100360000221012000F090FD022000F0A1FC09B064
:1003700000BD000018000020283801407C0000204B
:10038000704700BFFEE72DE9F04104460D461646D2
:1003900000276006070E00F017F9384600F0DEF877
:1003A00041F2883000F04CF910B10120BDE8F08135
:1003B000284600F0D3F841F2883000F041F908B146
:1003C0000120F3E700F000F9791CC8B200F0C6F88C
:1003D00041F2883000F034F908B10120E6E700F07E
:1003E00091F8307000F070F800F00CF90020DDE7B3
:1003F0002DE9F04105460E46144600276806070E13
:1004000000F0E2F8384600F0A9F841F2883000F038
:1004100017F910B10120BDE8F081304600F09EF8D8
:1004200041F2883000F00CF908B10120F3E74CB13B
:10043000207800F093F841F2883000F001F908B11B
:100440000120E8E700F0DEF80020E4E710B54021E5
:100450000B4800F0E5FD8021094800F0E1FD094965
:10046000088800F0E9FB4021054800F0DBFD054964
:10047000088800F0E1FB4021014800F0D1FD10BDEB
:10048000000400480800002010B540F2125001F0AE
:1004900027F8C023002201210A4800F0CDFDC02327
:1004A00003220121074800F0EEFD052000F086F848
:1004B0008021044800F0B6FD4021024800F0B2FD62
:1004C00010BD00000004004810B540210B4800F0AA
:1004D000A7FD8021094800F0A5FD0949088800F022
:1004E000ABFB4021054800F09DFD0549088800F060
:1004F000A3FB4021014800F093FD10BD000400481B
:100500000800002070B5002500248021114800F06B
:1005100089FD1AE040210F4800F082FD0E4908884D
:1005200000F08AFB40210B4800F07CFD6006040EC1
:100530008021084800F078FD08B1601CC4B206496B
:10054000088800F079FB681CC5B2082DE2DB204664
:1005500070BD0000000400480800002070B504468B
:1005600000254021134800F05BFD1FE004F08000EF
:1005700020B180210F4800F055FD03E080210D4897
:1005800000F04EFD6006040E0B49088800F054FB95
:100590004021084800F046FD0749088800F04CFB60
:1005A0004021044800F03CFD681CC5B2082DDDDB8D
:1005B00070BD0000000400480800002001490880C8
:1005C000704700000800002010B580210B4800F0A3
:1005D00029FD4021094800F025FD0949088800F05F
:1005E0002BFB8021054800F01BFD0549088800F021
:1005F00023FB4021014800F013FD10BD000400481A
:100600000800002010B580210B4800F009FD4021B2
:10061000094800F005FD0949088800F00DFB40215C
:10062000054800F0FFFC8021034800F0FBFC034973
:10063000088800F001FB10BD0004004808000020FD
:1006400010B504468021134800F0ECFC12490888DC
:1006500000F0F2FA40210F4800F0E4FC0E4908884F
:1006600000F0EAFA0AE0601E041E03D1FFF7CAFF99
:10067000012010BD0849088800F0DEFA80210548F5
:1006800000F0D2FC0028EED14021024800F0C8FC66
:100690000020EEE7000400480800002000BFFEE74D
:1006A0007047000010B5002807DA0A07140E054A43
:1006B00000F00F031B1FD45403E00A07130E024A75
:1006C000135410BD18ED00E000E400E07047000096
:1006D00008B5002000900520FFF770FF00F032F809
:1006E000642000F0A9FA0021E32000F0D3F81448B8
:1006F00080ED000A462000F093FA0021E52000F08A
:10070000C9F80F4880ED010A192000F089FA00F0BD
:1007100019F8192000F084FA6A46E6214020FFF714
:1007200067FE642000F088FA00F00CF8642000F006
:1007300083FA00F012F8642000F07EFA08BD000091
:100740000C00002008B5002000906A46E7214020F8
:10075000FFF719FE9DF8000008BD10B50022FE212C
:100760004020FFF745FE10BD10B52DED088B044667
:100770009FED140AB0EE408A24F0030400EE104A04
:10078000B8EE400A10EE100A01F054FB41EC1B0BCE
:100790009FED0D0B53EC102B01F064F941EC1A0B9B
:1007A0009FED0B0B53EC102B01F05AFA41EC190B97
:1007B00001F07EF808EE100AB0EE480ABDEC088B96
:1007C00010BD0000000000007644CF7701405F3F7D
:1007D000000000000000184010B52DED088B044605
:1007E0009FED140AB0EE408A24F0030400EE104A94
:1007F000B8EE400A10EE100A01F01CFB41EC1B0B96
:100800009FED0D0B53EC102B01F02CF941EC1A0B62
:100810009FED0B0B53EC102B01F07CF841EC190B06
:1008200001F046F808EE100AB0EE480ABDEC088B5D
:1008300010BD000000000000D7A3703D0AF7653F1F
:10084000CDCCCCCCCC6C47C070B503460C4615461D
:1008500000210026002200BF13E0985C41400826DA
:100860000BE001F0800020B1312080EA4100C1B2EC
:1008700001E04806010E701EC6B2002EF1DC501CCD
:10088000C2B2A242E9DBA94201D0012070BD002022
:10089000FCE700002DE9F0412DED028B82B0064609
:1008A0000C4600270025A8469FED360AB0EE408A88
:1008B0008025FFF789FE2846FFF750FE4CF25030A6
:1008C000FFF7BEFE30B19FED2F0A02B0BDEC028BE8
:1008D000BDE8F0813046FFF741FE4CF25030FFF7A3
:1008E000AFFE10B19FED270AEFE7FFF76DFE691C21
:1008F000C8B2FFF733FE05E0FFF766FE691CC8B219
:10090000FFF72CFE4CF25030FFF79AFE0028F3D18F
:10091000462000F085F9FFF7F5FD8DF80400FFF79C
:1009200095FDFFF7EFFD8DF80500FFF78FFDFFF751
:10093000E9FD0746FFF7C8FDFFF764FE3A460221CE
:1009400001A8FFF781FF9DF805009DF8041000EB5A
:1009500001201FFA80F8E32E05D14046FFF73CFF47
:10096000B0EE408A04E04046FFF7FEFEB0EE408A5B
:1009700024B1BCEEC80A10EE100A2080B0EE480A7E
:10098000A3E7000000000000704710B500F03CF93C
:1009900010BD000010B56948C06900F006000628C7
:1009A00071D06648C069C0F3403000286BD06448FD
:1009B000624948606348486061488860614888606F
:1009C0000846006940F0200008610846006940F0D0
:1009D0004000086100BF5948C06800F001000028CD
:1009E000F9D15648006920F02000544908610846B2
:1009F000006940F0100008610846C06900F0060078
:100A000018B9A5205049088008E04C48C06900F09A
:100A10000600022802D1BB204B4908804748C06924
:100A2000000A00F0DF004849891C08804348C0697B
:100A3000C0F30740891C08804048C069000E891C2B
:100A400008803E48006AC0B2891C08803B48006AA2
:100A5000C0F30720891C088000BF3848C06800F038
:100A600001000028F9D13548006920F01000334911
:100A700008610846006920F40070086108460069B2
:100A800040F0800008613148006840F470002F4950
:100A900008602F48006840F001002D49086000BF41
:100AA0002B48006800F002000028F9D02848406870
:100AB00020F00300264948600846006825490840A0
:100AC0002349086008464068234908402049486097
:100AD00008464068214908401D4948600846C06AE8
:100AE0001F4908401A49C8620846006B40F20311CA
:100AF0008843174908630846006B20F48030086378
:100B00000846006B20F0004008630846406B20F068
:100B1000010048630E48C030006820F48030C1F8FE
:100B2000C000002088600A49CC31086000F06CFDEC
:100B300000214FF0006000F079FB10BD0020024062
:100B400023016745AB89EFCD00F8FF1F88ED00E07A
:100B500000100240FFFFF2FE0C00FF08FFFFC2770B
:100B6000F0FFFF3F10B50649064800F075FE28B1BA
:100B70000349044800F05AFE00F006F810BD0000DA
:100B8000040004070038014010B5022000F07EF890
:100B90000121084600F0DEF8022000F0EBF9C0F178
:100BA000640006490870642005494863022000F08B
:100BB0007FF801200349087010BD000006000020E6
:100BC000000002400500002010B504460020044942
:100BD000087004480462012000F06AF810BD0000AB
:100BE000040000200000024010B50121084600F07A
:100BF000B1F8012000F04AF801200149087010BD49
:100C00000400002000BFFEE70448006820B103484C
:100C10000068401E01490860704700000000002085
:100C200030B50446002504E04FF47A7000F004F873
:100C30006D1CA542F8DB30BDF0B5034600224FF035
:100C4000E02675690F4E36680F4FB6FBF7F606FBC8
:100C500003F400BF4FF0E026B16910E04FF0E0264A
:100C6000B06988420BD0884202D20E1A324402E0A8
:100C70002E1A0E4432440146A24200D300E0EDE7B2
:100C800000BFF0BD1400002040420F0000EB8001C7
:100C9000064A02EB8101896821F0010100EB800224
:100CA000024B03EB8202916070470000000002409B
:100CB00000EB8001064A02EB8101896841F00101E5
:100CC00000EB8002024B03EB820291607047000050
:100CD0000000024000EB8001064A02EB81018968B6
:100CE00021F0200100EB8002024B03EB82029160B5
:100CF000704700000000024000EB8001144A02EB44
:100D00008101896821F0010100EB8002104B03EBA7
:100D100082029160002100EB800203EB820291606D
:100D200000EB800203EB8202D16000EB800203EB58
:100D30008202116100EB800203EB820251611946CD
:100D4000496883000F229A401143014A516070475D
:100D500000000240044A5268830001FA03F31A4378
:100D6000014B5A60704700000000024070B5044615
:100D70000D462046FFF78AFF04EB8401414A02EB4F
:100D800081012868086104EB840102EB8101E868B5
:100D90004861288B80B204EB840102EB8101C860BA
:100DA00004EB8400114601EB8000866826F47C5633
:100DB000296968680843E9690843064304EB84002D
:100DC000114601EB80008660287A01280CD104EBE3
:100DD000840001EB8000806840F0400004EB840157
:100DE00002EB810188600DE004EB8400254901EBF2
:100DF0008000806820F0400004EB8401214A02EB6F
:100E000081018860287D01280ED104EB84001D49F2
:100E100001EB8000806840F0800004EB8401194AF7
:100E200002EB810188600DE004EB8400154901EBC1
:100E30008000806820F0800004EB8401114A02EBFE
:100E400081018860687D70B904EB84000D4901EB75
:100E50008000806820F0100004EB8401094A02EB56
:100E6000810188600DE004EB8400064901EB8000FD
:100E7000806840F0100004EB8401024A02EB81011B
:100E8000886070BD0000024010B500EB8002064B88
:100E900003EB820292680A4300EB8003024C04EBEE
:100EA00083039A6010BD00000000024030B5024686
:100EB00000230024022904D0042912D0082930D1AB
:100EC0001FE01C480068950001FA05F500EA0504DA
:100ED00002EB8200174D05EB8000806800F00203F2
:100EE00020E014480068950001FA05F500EA0504C1
:100EF00002EB82000F4D05EB8000806800F00403D8
:100F000010E00C480068950001FA05F500EA0504B8
:100F100002EB8200074D05EB8000806800F00803BB
:100F200000E000BF00BF14B10BB1012030BD0020B4
:100F3000FCE700000000024000EB8001064A02EBE3
:100F40008101896821F4804100EB8002024B03EBB0
:100F500082029160704700000000024000210160A1
:100F600041600172C1600161017581614175C161BA
:100F700070470000014601EB8100024A02EB80004D
:100F8000C06870470000024010B540F2115000F0F8
:100F9000A7FA0223002201214FF0904000F04CF804
:100FA0000223032200214FF0904000F06CF8022051
:100FB0004FF09041886210BD02204FF09041C8620E
:100FC0007047F0B503461C6A5D6A00200DE00126FB
:100FD000864016403EB187000F26BE40B4438600CF
:100FE00001FA06F63443461CB0B20828EFD30820B5
:100FF00011E00126864016405EB1A0F10806B70058
:101000000F26BE40B543A0F10806B60001FA06F669
:101010003543461CB0B21028EBD31C625D62F0BDB4
:10102000816270478161704702461069084008B1CB
:10103000012070470020FCE7F0B504460D46164637
:101040002168E268002019E0012787401F409FB116
:101050004FEA400C032707FA0CF7B943470005FA9B
:1010600007F739434FEA400C032707FA0CF7BA4356
:10107000470006FA07F73A43471CB8B21028E3D3F3
:101080002160E260F0BDF0B504460E46012E03D1AA
:1010900067681F43676002E067689F436760A168F5
:1010A0004FF6FF77BA4216D1E56B00200EE001271C
:1010B00087401F4047B14FEA400C032707FA0CF75F
:1010C0003943012787403D43471CB8B21028EED36F
:1010D000A160E56314E000200FE0012787401F4076
:1010E0004FB14FEA400C032707FA0CF7B94347000A
:1010F00002FA07F73943471CB8B21028EDD3A160B4
:10110000F0BD0000FFF740FF00F082FA00F0A8FAFF
:10111000FFF7BAF921E04FF4FA70FFF781FDFFF70E
:101120004BFF4FF4FA70FFF77BFDFFF7D1FA0B4846
:101130000078012811D100200849087000BF04E0A0
:101140000749095C074A1154401C0749097888423D
:10115000F6DB05480078FFF737FDDCE705000020E7
:101160007C00002018000020060000202DE9F0413E
:1011700003460D46164600240027A0462448006872
:1011800000F4E060B0F5A06F15D006DCB0F5407F4C
:1011900018D0B0F5806F19D110E0B0F5C06F06D04F
:1011A000B0F5E06F12D100274FF0040815E00127D9
:1011B0004FF0030811E00227B8460EE003274FF076
:1011C00001080AE004274FF0000806E04FF4A06091
:1011D00000F022F80227B84600BF00BFC7F10400A4
:1011E00005FA00F4C8F104010F20C8403040044360
:1011F00024010848C45403F01F01012088405911FC
:10120000890001F1E021C1F80001BDE8F081000092
:101210000CED00E000E400E002490143024A1160E5
:10122000704700000000FA050CED00E0034A0A4098
:101230000243034B1A60BFF34F8F704780FFFF1FBD
:1012400008ED00E02DE9F04F92B0844600201190A7
:10125000109000240F90002500210E9000230D9087
:101260000C900B900022002600270A90099008900D
:101270008046814690A090E8004CC068CDE905BE4C
:10128000CDF810A007900FF2342ADAE9000ACDE970
:10129000020A0FF2282ADAE9000ACDE9000A8A4890
:1012A0004068C0F381001190119820B1012804D04A
:1012B000022847D103E0854D46E0844D44E0824852
:1012C0004068C0F3834280484068C0F3C0667E48EF
:1012D000C06AC70F0EB907B9921C012E01D107B918
:1012E000113216B9012F00D12132012E02D1012F66
:1012F00000D1313274484068C0F300400A9072480F
:10130000C06AC0F3807009900A98B8B16E48C06A8C
:1013100000F00F00401C0890099838B9DFF8ACA124
:101320000898BAFBF0F000FB02F50AE0DFF8A0A194
:101330000898BAFBF0F000FB02F502E0654802FBFA
:1013400000F501E0614D00BF00BF5F484068C0F399
:10135000031804A810F8089025FA09F15A484068C3
:10136000C0F3022802A810F8089021FA09F00E90A4
:1013700055484068C0F3C2281DF8089021FA09F3C7
:10138000BCF1070F75D2DFE80CF00406080B0D5D09
:101390006D000F958BE00F9189E00E980F9086E01D
:1013A0000F9384E04848006B00F48070B0F5807FB4
:1013B0000CD04548006B00F48030B0F5803F02D07F
:1013C00045480D903BE045480D9038E03E48406868
:1013D000C0F3813010903C48006BC40F109830B1BE
:1013E00001280DD0022814D0032826D11CE014B9FE
:1013F00058080D9003E00320B1FBF0F00D901DE0C4
:1014000014B998080D9003E00520B1FBF0F00D90A1
:1014100014E024B90620B3FBF0F00D9003E00720A0
:10142000B1FBF0F00D9009E014B9D8080D9003E07D
:101430000920B1FBF0F00D9000E000BF00BF0D9857
:101440000F9034E02048006B00F04000402803D0AB
:1014500048F212000C9002E04FF400400C900C98FF
:101460000F9024E01848006B00F0030010B90B93B4
:1014700019E01BE01448006B00F00300012801D1C3
:101480000B9510E01048006B00F00300022802D119
:1014900080030B9007E00C48006B00F0030003286A
:1014A00001D10A480B900B980F9000E000BF00BFDD
:1014B0000F9812B0BDE8F08F00000000000000009F
:1014C00001020304060708090010024000127A0016
:1014D000006CDC0200093D00809FD500003FAB019D
:1014E000064A02EB9011096800F01F0301229A409E
:1014F0001143024B03EB9012116070470010024041
:10150000064A02EB9011096800F01F0301229A407D
:101510009143024B03EB90121160704700100240A0
:10152000064A02EB9011096800F01F0301229A405D
:101530001143024B03EB9012116070470010024000
:10154000002000212D4A126842F480322B4B1A6091
:1015500000BF401C294A126802F4003111B9B0F5ED
:10156000006FF6D1254A126802F4003202B97047C2
:10157000224A5268214B5A601A46526842F400527D
:101580005A601A46526842F480625A601A4652689B
:101590001B4B1A40194B5A601A46D26A194B1A4013
:1015A000164BDA621A46526842F4E8125A601A463A
:1015B000D26ADA621A46D26ADA621A46126842F0CF
:1015C00080721A6000BF0D4A126802F00072002A91
:1015D000F9D00A4A526822F00302084B5A601A46B0
:1015E000526842F002025A6000BF044A526802F098
:1015F0000802002AF9D000BFB9E70000001002403D
:10160000FFFFC0F7F0FFFF3F10B5FFF799FF10BDD8
:1016100010B5124800684FF47A71B0FBF1F4601E07
:10162000B0F1807F01D301200FE0601E4FF0E02178
:1016300048610F214FF0FF30FFF734F800204FF0E2
:10164000E021886107200861002008B100BFFEE7A3
:101650000021481EFFF726F810BD000014000020EE
:1016600010B540F20E60FFF73BFF40F21150FFF75C
:1016700037FF4FF4007201214FF09040FFF7A1FCBB
:101680004FF4806201214FF09040FFF79AFC4FF435
:101690000073012202214FF09040FFF7CDFC4FF480
:1016A0000073032200214FF09040FFF7ECFC4FF451
:1016B0008063012202214FF09040FFF7BDFC4FF400
:1016C0008063032200214FF09040FFF7DCFC1648B6
:1016D00000F06AF84FF4E131134800F027F80421D4
:1016E000114800F0D5F808210F4800F0D9F80E484D
:1016F00000F08AF8002211461B20FFF737FD002278
:1017000011460A20FFF732FDFEF7DAFD40210648B8
:1017100000F06AF88021044800F06EF804210248C5
:1017200000F077F810BD0000003801402DE9F047C7
:1017300004460D460027B846B946002619482044FD
:1017400038B1B0F5744F09D10620FFF77BFD07468D
:1017500005E00220FFF776FD074600E000BF00BF6E
:10176000206800F4004070B1780000EB5500B0FB39
:10177000F5F64FF6F07006EA0008C6F3420948EAAB
:101780000900E0600CE007EB5500B0FBF5F64FF602
:10179000F07006EA000806F00F0948EA0900E06068
:1017A000BDE8F08700BCFFBF10B504460D482044DB
:1017B00058B1B0F5744F11D140F20E30FFF7B0FEC2
:1017C00040F20E30FFF79CFE09E040F21140FFF7B7
:1017D000A7FE40F21140FFF793FE00E000BF00BFFC
:1017E00010BD000000BCFFBF826822F04002826092
:1017F00082680A4382607047826822F080028260B9
:1018000082680A4382607047016841F0010101600B
:10181000704710B500EB9112126801F01F0401230C
:10182000A3401A4300EB91131A6010BD10B5094A8A
:10183000914206D1D0F8D02022F40042C0F8D02046
:1018400006E0026AC1F304440123A3401A43026282
:1018500010BD000009340F3470B502460023002487
:10186000C1F38910105801F01F060125B54000EAA8
:10187000050302EB91500068C1F304460125B54011
:1018800000EA050414B10BB1012070BD0020FCE793
:10189000026822F00402026002680A430260704794
:1018A000026822F00802026002680A430260704780
:1018B00021F00042A2F16052B2F5801F01F0004316
:1018C00028BFD2F17F6C0BD95FEA001C43EAC20249
:1018D00042EB507018BF704728BF20F001007047DE
:1018E000B2F5801FBCBF184670474FEA410C1CF58B
:1018F000001F02D2084600F013BB70B500F05CF97F
:1019000000000089FFF7F6BF4FF00040A0F580000F
:101910007047000010B591EA030F48BF83F0004301
:1019200000F1A681841A71EB030C05D2121943EB66
:101930000C03001B61EB0C01DFF824E14FEA1154AA
:10194000A4EB135C1EEA430F18BF9EEA445F73D0FA
:1019500023EA0E03DCF1200E21EA045143F4801344
:1019600032D322FA0CFE10EB0E0023FA0CFE41EBF0
:101970000E01CCF1200E03FA0EFE10EB0E0051F119
:101980000001B1F5801FCCF1200E32D201EB0451E1
:1019900012FA0EF2BDE8104058BF7047401C38BF25
:1019A0005FEA420218BF7047002814BF20F0010010
:1019B00041F100014FEA410313F5001F38BF7047A2
:1019C000A1F1C04100F046B9012A43EB0302ACF19A
:1019D000200CDCF11F0E32BF4FF0000E23FA0CF387
:1019E00010EB030041EB0451B4EB115FD0D0A1EB3D
:1019F000045101F5801149085FEA300001EB045100
:101A00000ED350F1000038BF12FA0EFE08D1BDE827
:101A10001040C9E7401C38BF5FEA4202CAD1C3E7A1
:101A2000BDE810404FEA410313F5001F38BF70476F
:101A3000A1F1C04100F00EB99EEA445F08D011EA5E
:101A40005E0FBDE8104004BF01F000410020704768
:101A5000BDE8104070B500F0AFF800BF64FBBE3EBB
:101A60000000E0FFDFF848C170B51CEA111E1EBF80
:101A70001CEA13159EEA0C0F95EA0C0F00F06F801C
:101A800081EA030423EA4C134EEAD47E21EA4C1186
:101A900041F4801143F48013AE44A1FB024CA0FB3F
:101AA0000365AEF17F7E361955EB0C05A1FB034CA7
:101AB0004CF10003A0FB021C16EB0C06654153F130
:101AC0000003094218BF46F0010613F4007F0BD152
:101AD0004FEA03314FEA0530340341EA155140EA39
:101AE00016506FF003020AE04FEAC3214FEAC52007
:101AF000F40241EA555140EA56506FF0020202EBFF
:101B00002E4201EB025585EACE710AD05FEA440C01
:101B100018BF24F0004450F1000041F1000120EA18
:101B2000D47040F2FE7C624500D270BDA84214BF62
:101B30004FF080444FF04044002E08BF0024BEF117
:101B4000806FA8BFA1F1C041BDE8704080F28280E3
:101B50004FF0000001F1C04101F0004170479EEAE2
:101B60000C0F0CEA131518BF95EA0C0F06D04FF0B6
:101B7000000081EA030E0EF0004170BD00F01CF879
:101B80008900013E00F007B800F009B84FEA430CA5
:101B90005FEA5C5C08D081EA030100F05BB84FEAC1
:101BA000410C5FEA5C5CF6D14FF0000001497047E0
:101BB0000000FF070000F87F0EF1020E2EF0030E6A
:101BC0005EF8046B364205D4012A43EB030515F594
:101BD000001F12D8012841EB010C1CF5001F0CD886
:101BE0000ED14FEAD17C15F5001F0CEB4C0C0CF11B
:101BF000020C08BF4CEBD37C04E04FF0080C01E072
:101C00004FEAD37C0CEB4C0526FA05F606F00706E6
:101C1000B6F1040C06D20EEB860CBDE870404CF019
:101C2000010C6047DFE80CF0090B02024FF00041A5
:101C30004FF00000A1F5002170BD194610460128A3
:101C400051EB010418BFD4F5001484BF002001F04B
:101C5000004170BD0808A0F500114FEA310170473E
:101C600010B591EA030F48BF83F000433FF55AAE29
:101C7000841A71EB030C07D212198CF0004C43EB61
:101C80000C03001B61EB0C01DFF8A4E14FEA1154D7
:101C9000A4EB135C1EEA430F18BF9EEA445F00F0FA
:101CA000B08023EA6E03524221EA0451C3EB6E0373
:101CB00038BF5B1EDCF1200E25D322FA0CFE10EBA0
:101CC0000E0043FA0CFE41EB0E01CCF1200E03FA9C
:101CD0000EFE10EB0E0051F10001CCF1200E29D4C4
:101CE00012FA0EF201EB0451BDE8104058BF7047E4
:101CF000401C1CBFB2F1004F704700280CBF491CAC
:101D000020F00100704712EB020E43EB030218BFF4
:101D10004FF0010E4EEA4202ACF1200CDCF11E0E37
:101D200054D943FA0CFE10EB0E0051F1FF31CCF107
:101D30001E0ED5D50EF1010E12FA0EFE404141EBFA
:101D4000010101EB445C5FEA5C5C10D910EBDE70D2
:101D500001EB045138BFBEF1004FBDE8104018BF81
:101D6000704700280CBF491C20F00100704730D29A
:101D70004FEAD42C11F5001124F400641BD0B1FA01
:101D800081F20B3AA41AA41ED2F12003914030FA3A
:101D900003F31943904001EBCC71002C01EB04518B
:101DA000BDE81040A8BF704701F1C0414FF00000EE
:101DB00001F000417047B0FA80F310FA03F100D14E
:101DC00010BDE41A173C4805C90AE4E701EB0451C9
:101DD00010BD491001EB0451BDE810404FEA30003E
:101DE00002E04FF0000170474A0008BF0042F8D0FF
:101DF000B2F5001F28BF704701F000414FF000000E
:101E000070479EEA445F07D011EA5E0FBDE81040BC
:101E100004BF002100207047BDE8104070B5FFF7F7
:101E2000CBFE00BF40DFF63E83F000411046704716
:101E30000000E0FF43004FEAD30C4FEA3C0C434064
:101E40001FBF40070CF1605113F0FE4F70471CF0AC
:101E5000006F03D100200CF0004170470CF00043EC
:101E600043EA507010B540EACC0000F00EF800BF15
:101E7000000000924FEA0001FFF7ECBE4FF0004176
:101E80004FF00000A1F5002170470EF1020E2EF078
:101E9000030E5EF8044B244204D44FEA4102B2F12F
:101EA0007F4F11D84FEA4003B3F17F4F0CD80ED1CA
:101EB0004FEAD07CB2F17F4F0CEB4C0C0CF1020CD2
:101EC00008BF4CEBD17C04E04FF0080C01E04FEA76
:101ED000D17C0CEB4C0324FA03F404F00704B4F1B6
:101EE000040C06D20EEB840CBDE810404CF0010C43
:101EF0006047DFE80CF0070802024FF00040A0F551
:101F0000800010BD0846420018BFD2F1807288BF21
:101F100000F0004010BD4FF04070E1EE100A704735
:101F2000FF2141EAD050C005704700004C1F000857
:101F300000000020180000008C010008641F000849
:101F40001800002028090000A80100080000000077
:101F50000000000000000000000000000000000081
:041F600000A24A048D
:04000005080001519D
:00000001FF
